{
  "_format": "hh-sol-artifact-1",
  "contractName": "DocumentRegistry",
  "sourceName": "contracts/DocumentRegistry.sol",
  "abi": [
    {
      "inputs": [],
      "stateMutability": "nonpayable",
      "type": "constructor"
    },
    {
      "anonymous": false,
      "inputs": [
        {
          "indexed": true,
          "internalType": "bytes32",
          "name": "docHash",
          "type": "bytes32"
        },
        {
          "indexed": true,
          "internalType": "address",
          "name": "verifier",
          "type": "address"
        },
        {
          "indexed": false,
          "internalType": "string",
          "name": "reason",
          "type": "string"
        }
      ],
      "name": "DocumentRejected",
      "type": "event"
    },
    {
      "anonymous": false,
      "inputs": [
        {
          "indexed": true,
          "internalType": "bytes32",
          "name": "docHash",
          "type": "bytes32"
        },
        {
          "indexed": false,
          "internalType": "string",
          "name": "reason",
          "type": "string"
        }
      ],
      "name": "DocumentRevoked",
      "type": "event"
    },
    {
      "anonymous": false,
      "inputs": [
        {
          "indexed": true,
          "internalType": "bytes32",
          "name": "docHash",
          "type": "bytes32"
        },
        {
          "indexed": true,
          "internalType": "address",
          "name": "submitter",
          "type": "address"
        },
        {
          "indexed": false,
          "internalType": "enum DocumentRegistry.DocType",
          "name": "docType",
          "type": "uint8"
        },
        {
          "indexed": false,
          "internalType": "bytes32",
          "name": "tradeId",
          "type": "bytes32"
        },
        {
          "indexed": false,
          "internalType": "string",
          "name": "ipfsCid",
          "type": "string"
        }
      ],
      "name": "DocumentSubmitted",
      "type": "event"
    },
    {
      "anonymous": false,
      "inputs": [
        {
          "indexed": true,
          "internalType": "bytes32",
          "name": "docHash",
          "type": "bytes32"
        },
        {
          "indexed": true,
          "internalType": "address",
          "name": "verifier",
          "type": "address"
        },
        {
          "indexed": false,
          "internalType": "enum DocumentRegistry.DocType",
          "name": "docType",
          "type": "uint8"
        }
      ],
      "name": "DocumentVerified",
      "type": "event"
    },
    {
      "anonymous": false,
      "inputs": [
        {
          "indexed": true,
          "internalType": "address",
          "name": "verifier",
          "type": "address"
        }
      ],
      "name": "VerifierAdded",
      "type": "event"
    },
    {
      "anonymous": false,
      "inputs": [
        {
          "indexed": true,
          "internalType": "address",
          "name": "verifier",
          "type": "address"
        }
      ],
      "name": "VerifierRemoved",
      "type": "event"
    },
    {
      "inputs": [
        {
          "internalType": "address",
          "name": "v",
          "type": "address"
        }
      ],
      "name": "addVerifier",
      "outputs": [],
      "stateMutability": "nonpayable",
      "type": "function"
    },
    {
      "inputs": [
        {
          "internalType": "bytes32",
          "name": "tradeId",
          "type": "bytes32"
        }
      ],
      "name": "allTradeDocsVerified",
      "outputs": [
        {
          "internalType": "bool",
          "name": "",
          "type": "bool"
        }
      ],
      "stateMutability": "view",
      "type": "function"
    },
    {
      "inputs": [
        {
          "internalType": "bytes32",
          "name": "",
          "type": "bytes32"
        }
      ],
      "name": "documents",
      "outputs": [
        {
          "internalType": "bytes32",
          "name": "docHash",
          "type": "bytes32"
        },
        {
          "internalType": "enum DocumentRegistry.DocType",
          "name": "docType",
          "type": "uint8"
        },
        {
          "internalType": "enum DocumentRegistry.VerificationStatus",
          "name": "status",
          "type": "uint8"
        },
        {
          "internalType": "address",
          "name": "submitter",
          "type": "address"
        },
        {
          "internalType": "address",
          "name": "verifier",
          "type": "address"
        },
        {
          "internalType": "uint256",
          "name": "submittedAt",
          "type": "uint256"
        },
        {
          "internalType": "uint256",
          "name": "verifiedAt",
          "type": "uint256"
        },
        {
          "internalType": "bytes32",
          "name": "tradeId",
          "type": "bytes32"
        },
        {
          "internalType": "string",
          "name": "ipfsCid",
          "type": "string"
        },
        {
          "internalType": "string",
          "name": "description",
          "type": "string"
        },
        {
          "internalType": "bool",
          "name": "isPublic",
          "type": "bool"
        }
      ],
      "stateMutability": "view",
      "type": "function"
    },
    {
      "inputs": [
        {
          "internalType": "address",
          "name": "submitter",
          "type": "address"
        }
      ],
      "name": "getSubmitterDocuments",
      "outputs": [
        {
          "internalType": "bytes32[]",
          "name": "",
          "type": "bytes32[]"
        }
      ],
      "stateMutability": "view",
      "type": "function"
    },
    {
      "inputs": [
        {
          "internalType": "bytes32",
          "name": "tradeId",
          "type": "bytes32"
        }
      ],
      "name": "getTradeDocuments",
      "outputs": [
        {
          "internalType": "bytes32[]",
          "name": "",
          "type": "bytes32[]"
        }
      ],
      "stateMutability": "view",
      "type": "function"
    },
    {
      "inputs": [
        {
          "internalType": "bytes32",
          "name": "docHash",
          "type": "bytes32"
        }
      ],
      "name": "getVerificationProof",
      "outputs": [
        {
          "internalType": "bool",
          "name": "verified",
          "type": "bool"
        },
        {
          "internalType": "address",
          "name": "verifier",
          "type": "address"
        },
        {
          "internalType": "uint256",
          "name": "verifiedAt",
          "type": "uint256"
        },
        {
          "internalType": "enum DocumentRegistry.DocType",
          "name": "docType",
          "type": "uint8"
        },
        {
          "internalType": "string",
          "name": "ipfsCid",
          "type": "string"
        },
        {
          "internalType": "string",
          "name": "description",
          "type": "string"
        }
      ],
      "stateMutability": "view",
      "type": "function"
    },
    {
      "inputs": [
        {
          "internalType": "bytes32",
          "name": "docHash",
          "type": "bytes32"
        }
      ],
      "name": "isVerified",
      "outputs": [
        {
          "internalType": "bool",
          "name": "",
          "type": "bool"
        }
      ],
      "stateMutability": "view",
      "type": "function"
    },
    {
      "inputs": [],
      "name": "owner",
      "outputs": [
        {
          "internalType": "address",
          "name": "",
          "type": "address"
        }
      ],
      "stateMutability": "view",
      "type": "function"
    },
    {
      "inputs": [
        {
          "internalType": "bytes32",
          "name": "docHash",
          "type": "bytes32"
        },
        {
          "internalType": "string",
          "name": "reason",
          "type": "string"
        }
      ],
      "name": "rejectDocument",
      "outputs": [],
      "stateMutability": "nonpayable",
      "type": "function"
    },
    {
      "inputs": [
        {
          "internalType": "address",
          "name": "v",
          "type": "address"
        }
      ],
      "name": "removeVerifier",
      "outputs": [],
      "stateMutability": "nonpayable",
      "type": "function"
    },
    {
      "inputs": [
        {
          "internalType": "bytes32",
          "name": "docHash",
          "type": "bytes32"
        },
        {
          "internalType": "string",
          "name": "reason",
          "type": "string"
        }
      ],
      "name": "revokeDocument",
      "outputs": [],
      "stateMutability": "nonpayable",
      "type": "function"
    },
    {
      "inputs": [
        {
          "internalType": "bytes32",
          "name": "docHash",
          "type": "bytes32"
        },
        {
          "internalType": "enum DocumentRegistry.DocType",
          "name": "docType",
          "type": "uint8"
        },
        {
          "internalType": "bytes32",
          "name": "tradeId",
          "type": "bytes32"
        },
        {
          "internalType": "string",
          "name": "ipfsCid",
          "type": "string"
        },
        {
          "internalType": "string",
          "name": "description",
          "type": "string"
        },
        {
          "internalType": "bool",
          "name": "isPublic",
          "type": "bool"
        }
      ],
      "name": "submitDocument",
      "outputs": [
        {
          "internalType": "bytes32",
          "name": "",
          "type": "bytes32"
        }
      ],
      "stateMutability": "nonpayable",
      "type": "function"
    },
    {
      "inputs": [
        {
          "internalType": "bytes32[]",
          "name": "docHashes",
          "type": "bytes32[]"
        },
        {
          "internalType": "enum DocumentRegistry.DocType[]",
          "name": "docTypes",
          "type": "uint8[]"
        },
        {
          "internalType": "bytes32",
          "name": "tradeId",
          "type": "bytes32"
        },
        {
          "internalType": "string[]",
          "name": "ipfsCids",
          "type": "string[]"
        },
        {
          "internalType": "string[]",
          "name": "descriptions",
          "type": "string[]"
        }
      ],
      "name": "submitDocumentBatch",
      "outputs": [],
      "stateMutability": "nonpayable",
      "type": "function"
    },
    {
      "inputs": [
        {
          "internalType": "address",
          "name": "",
          "type": "address"
        },
        {
          "internalType": "uint256",
          "name": "",
          "type": "uint256"
        }
      ],
      "name": "submitterDocs",
      "outputs": [
        {
          "internalType": "bytes32",
          "name": "",
          "type": "bytes32"
        }
      ],
      "stateMutability": "view",
      "type": "function"
    },
    {
      "inputs": [],
      "name": "totalDocsSubmitted",
      "outputs": [
        {
          "internalType": "uint256",
          "name": "",
          "type": "uint256"
        }
      ],
      "stateMutability": "view",
      "type": "function"
    },
    {
      "inputs": [],
      "name": "totalDocsVerified",
      "outputs": [
        {
          "internalType": "uint256",
          "name": "",
          "type": "uint256"
        }
      ],
      "stateMutability": "view",
      "type": "function"
    },
    {
      "inputs": [
        {
          "internalType": "bytes32",
          "name": "",
          "type": "bytes32"
        },
        {
          "internalType": "uint256",
          "name": "",
          "type": "uint256"
        }
      ],
      "name": "tradeDocs",
      "outputs": [
        {
          "internalType": "bytes32",
          "name": "",
          "type": "bytes32"
        }
      ],
      "stateMutability": "view",
      "type": "function"
    },
    {
      "inputs": [
        {
          "internalType": "address",
          "name": "newOwner",
          "type": "address"
        }
      ],
      "name": "transferOwnership",
      "outputs": [],
      "stateMutability": "nonpayable",
      "type": "function"
    },
    {
      "inputs": [
        {
          "internalType": "address",
          "name": "",
          "type": "address"
        }
      ],
      "name": "verifiers",
      "outputs": [
        {
          "internalType": "bool",
          "name": "",
          "type": "bool"
        }
      ],
      "stateMutability": "view",
      "type": "function"
    },
    {
      "inputs": [
        {
          "internalType": "bytes32",
          "name": "docHash",
          "type": "bytes32"
        }
      ],
      "name": "verifyDocument",
      "outputs": [],
      "stateMutability": "nonpayable",
      "type": "function"
    },
    {
      "inputs": [
        {
          "internalType": "bytes32[]",
          "name": "docHashes",
          "type": "bytes32[]"
        }
      ],
      "name": "verifyDocumentBatch",
      "outputs": [],
      "stateMutability": "nonpayable",
      "type": "function"
    }
  ],
  "bytecode": "0x608060405234801561001057600080fd5b50600080546001600160a01b0319163390811782558152600460205260409020805460ff19166001179055611e548061004a6000396000f3fe608060405234801561001057600080fd5b50600436106101375760003560e01c80639000b3d6116100b8578063e0b4db2e1161007c578063e0b4db2e146102d2578063f2539c7c146102db578063f2fde38b146102ee578063f5baf80714610301578063fd9f33e314610314578063fe35089f1461032757600080fd5b80639000b3d614610261578063a670174514610274578063aad4c51714610299578063c181b273146102ac578063ca2dfd0a146102bf57600080fd5b80634ee0c0a7116100ff5780634ee0c0a7146101cb5780636c824487146101e05780636d75a0e8146102035780637bdce199146102165780638da5cb5b1461023657600080fd5b806321647f8b1461013c578063285b1a49146101585780632b2805db1461016b5780633c0b9ffb1461019557806341a61b70146101b8575b600080fd5b61014560065481565b6040519081526020015b60405180910390f35b6101456101663660046115f3565b61033a565b61017e610179366004611615565b61036b565b60405161014f9b9a9998979695949392919061169e565b6101a86101a3366004611615565b6104e7565b604051901515815260200161014f565b6101456101c6366004611798565b61058f565b6101de6101d9366004611844565b610920565b005b6101a86101ee3660046118a7565b60046020526000908152604090205460ff1681565b6101de61021136600461190e565b6109de565b6102296102243660046118a7565b610e02565b60405161014f91906119de565b600054610249906001600160a01b031681565b6040516001600160a01b03909116815260200161014f565b6101de61026f3660046118a7565b610e6e565b610287610282366004611615565b610ee4565b60405161014f96959493929190611a22565b6101456102a7366004611a7f565b611083565b6101a86102ba366004611615565b61109f565b6101de6102cd3660046118a7565b6110d2565b61014560055481565b6101de6102e9366004611844565b611145565b6101de6102fc3660046118a7565b611276565b61022961030f366004611615565b6112d5565b6101de610322366004611aa9565b611335565b6101de610335366004611615565b611494565b6003602052816000526040600020818154811061035657600080fd5b90600052602060002001600091509150505481565b6001602081905260009182526040909120805491810154600282015460038301546004840154600585015460068601805460ff808816986101008904909116976001600160a01b0362010000909104811697169594939290916103cd90611aeb565b80601f01602080910402602001604051908101604052809291908181526020018280546103f990611aeb565b80156104465780601f1061041b57610100808354040283529160200191610446565b820191906000526020600020905b81548152906001019060200180831161042957829003601f168201915b50505050509080600701805461045b90611aeb565b80601f016020809104026020016040519081016040528092919081815260200182805461048790611aeb565b80156104d45780601f106104a9576101008083540402835291602001916104d4565b820191906000526020600020905b8154815290600101906020018083116104b757829003601f168201915b5050506008909301549192505060ff168b565b6000818152600360205260408120805482036105065750600092915050565b60005b815481101561058557600180600084848154811061052957610529611b25565b9060005260206000200154815260200190815260200160002060010160019054906101000a900460ff1660038111156105645761056461162e565b14610573575060009392505050565b8061057d81611b51565b915050610509565b5060019392505050565b6000886105da5760405162461bcd60e51b81526020600482015260146024820152730a4caced2e6e8e4f27440cadae0e8f240d0c2e6d60631b60448201526064015b60405180910390fd5b600089815260016020526040902060030154156106395760405162461bcd60e51b815260206004820152601b60248201527f52656769737472793a20616c7265616479207375626d6974746564000000000060448201526064016105d1565b8461067e5760405162461bcd60e51b8152602060048201526015602482015274149959da5cdd1c9e4e881b9bc812541194c810d251605a1b60448201526064016105d1565b6040518061016001604052808a81526020018960098111156106a2576106a261162e565b815260200160008152602001336001600160a01b0316815260200160006001600160a01b031681526020014281526020016000815260200188815260200187878080601f016020809104026020016040519081016040528093929190818152602001838380828437600092019190915250505090825250604080516020601f88018190048102820181019092528681529181019190879087908190840183828082843760009201829052509385525050508415156020928301528b815260018083526040909120835181559183015182820180549192909160ff1916908360098111156107915761079161162e565b0217905550604082015160018201805461ff0019166101008360038111156107bb576107bb61162e565b0217905550606082015160018201805462010000600160b01b031916620100006001600160a01b039384160217905560808301516002830180546001600160a01b0319169190921617905560a0820151600382015560c0820151600482015560e0820151600582015561010082015160068201906108399082611bce565b50610120820151600782019061084f9082611bce565b5061014091909101516008909101805460ff19169115159190911790553360009081526002602090815260408220805460018101825590835291200189905586156108b6576000878152600360209081526040822080546001810182559083529120018990555b600580549060006108c683611b51565b9190505550336001600160a01b0316897f7c1ab25e6a3d662fcce2a799b234ed8f9867ceb59cad1bb8196294ea8ef5ca698a8a8a8a60405161090b9493929190611cb7565b60405180910390a35096979650505050505050565b3360009081526004602052604090205460ff1661094f5760405162461bcd60e51b81526004016105d190611ce8565b600083815260016020526040902060030154839061097f5760405162461bcd60e51b81526004016105d190611d1f565b60008481526001602081905260409182902001805461ff0019166103001790555184907eb95e027f9ebb0110e538f41617c6265b28cf7df52839284975fec55aed9c7d906109d09086908690611d4c565b60405180910390a250505050565b87861480156109ec57508783145b610a385760405162461bcd60e51b815260206004820152601960248201527f52656769737472793a206c656e677468206d69736d617463680000000000000060448201526064016105d1565b60005b88811015610ddc57600160008b8b84818110610a5957610a59611b25565b90506020020135815260200190815260200160002060030154600014610ab75760405162461bcd60e51b815260206004820152601360248201527252656769737472793a206475706c696361746560681b60448201526064016105d1565b6040518061016001604052808b8b84818110610ad557610ad5611b25565b905060200201358152602001898984818110610af357610af3611b25565b9050602002016020810190610b089190611d68565b6009811115610b1957610b1961162e565b815260200160008152336020820152600060408201819052426060830152608082015260a0810188905260c001868684818110610b5857610b58611b25565b9050602002810190610b6a9190611d83565b8080601f016020809104026020016040519081016040528093929190818152602001838380828437600092019190915250505090825250602001848484818110610bb657610bb6611b25565b9050602002810190610bc89190611d83565b8080601f0160208091040260200160405190810160405280939291908181526020018383808284376000920182905250938552505060016020909301839052508c8c85818110610c1a57610c1a611b25565b9050602002013581526020019081526020016000206000820151816000015560208201518160010160006101000a81548160ff02191690836009811115610c6357610c6361162e565b0217905550604082015160018201805461ff001916610100836003811115610c8d57610c8d61162e565b0217905550606082015160018201805462010000600160b01b031916620100006001600160a01b039384160217905560808301516002830180546001600160a01b0319169190921617905560a0820151600382015560c0820151600482015560e082015160058201556101008201516006820190610d0b9082611bce565b506101208201516007820190610d219082611bce565b5061014091909101516008909101805460ff19169115159190911790553360009081526002602052604090208a8a83818110610d5f57610d5f611b25565b835460018101855560009485526020948590209190940292909201359190920155508515610dca5760008681526003602052604090208a8a83818110610da757610da7611b25565b835460018101855560009485526020948590209190940292909201359190920155505b80610dd481611b51565b915050610a3b565b508888905060056000828254610df29190611dca565b9091555050505050505050505050565b6001600160a01b038116600090815260026020908152604091829020805483518184028101840190945280845260609392830182828015610e6257602002820191906000526020600020905b815481526020019060010190808311610e4e575b50505050509050919050565b6000546001600160a01b03163314610e985760405162461bcd60e51b81526004016105d190611de3565b6001600160a01b038116600081815260046020526040808220805460ff19166001179055517f6d05492139c5ea989514a5d2150c028041e5c087e2a39967f67dc7d2655adb819190a250565b6000818152600160208190526040822082918291829160609182916001820154610100900460ff166003811115610f1d57610f1d61162e565b148160020160009054906101000a90046001600160a01b031682600401548360010160009054906101000a900460ff168460060185600701818054610f6190611aeb565b80601f0160208091040260200160405190810160405280929190818152602001828054610f8d90611aeb565b8015610fda5780601f10610faf57610100808354040283529160200191610fda565b820191906000526020600020905b815481529060010190602001808311610fbd57829003601f168201915b50505050509150808054610fed90611aeb565b80601f016020809104026020016040519081016040528092919081815260200182805461101990611aeb565b80156110665780601f1061103b57610100808354040283529160200191611066565b820191906000526020600020905b81548152906001019060200180831161104957829003601f168201915b505050505090509650965096509650965096505091939550919395565b6002602052816000526040600020818154811061035657600080fd5b60008181526001602081905260408220810154610100900460ff1660038111156110cb576110cb61162e565b1492915050565b6000546001600160a01b031633146110fc5760405162461bcd60e51b81526004016105d190611de3565b6001600160a01b038116600081815260046020526040808220805460ff19169055517f44a3cd4eb5cc5748f6169df057b1cb2ae4c383e87cd94663c430e095d4cba4249190a250565b3360009081526004602052604090205460ff166111745760405162461bcd60e51b81526004016105d190611ce8565b60008381526001602052604090206003015483906111a45760405162461bcd60e51b81526004016105d190611d1f565b600084815260016020819052604082200154610100900460ff1660038111156111cf576111cf61162e565b146112145760405162461bcd60e51b815260206004820152601560248201527452656769737472793a206e6f742070656e64696e6760581b60448201526064016105d1565b60008481526001602081905260409182902001805461ff00191661020017905551339085907f34c66de432b94e8b9dcb23b78836659ed800c8fdbc7f2c40a9b507dfb3333dbd906112689087908790611d4c565b60405180910390a350505050565b6000546001600160a01b031633146112a05760405162461bcd60e51b81526004016105d190611de3565b6001600160a01b0381166112b357600080fd5b600080546001600160a01b0319166001600160a01b0392909216919091179055565b600081815260036020908152604091829020805483518184028101840190945280845260609392830182828015610e625760200282019190600052602060002090815481526020019060010190808311610e4e5750505050509050919050565b3360009081526004602052604090205460ff166113645760405162461bcd60e51b81526004016105d190611ce8565b60005b8181101561148f5760006001600085858581811061138757611387611b25565b9050602002013581526020019081526020016000209050600081600301541180156113cf575060006001820154610100900460ff1660038111156113cd576113cd61162e565b145b1561147c576001818101805461ff0019166101008302179055506002810180546001600160a01b031916331790554260048201556006805490600061141383611b51565b9091555033905084848481811061142c5761142c611b25565b905060200201357f233d711797a2cfcc232194614d3a9d019929c0b4e58e3b04110728eea1fd27668360010160009054906101000a900460ff166040516114739190611e10565b60405180910390a35b508061148781611b51565b915050611367565b505050565b3360009081526004602052604090205460ff166114c35760405162461bcd60e51b81526004016105d190611ce8565b60008181526001602052604090206003015481906114f35760405162461bcd60e51b81526004016105d190611d1f565b6000828152600160205260408120906001820154610100900460ff1660038111156115205761152061162e565b146115655760405162461bcd60e51b815260206004820152601560248201527452656769737472793a206e6f742070656e64696e6760581b60448201526064016105d1565b6001818101805461ff0019166101008302179055506002810180546001600160a01b03191633179055426004820155600680549060006115a483611b51565b90915550506001810154604051339185917f233d711797a2cfcc232194614d3a9d019929c0b4e58e3b04110728eea1fd2766916115e69160ff90911690611e10565b60405180910390a3505050565b6000806040838503121561160657600080fd5b50508035926020909101359150565b60006020828403121561162757600080fd5b5035919050565b634e487b7160e01b600052602160045260246000fd5b600a81106116545761165461162e565b9052565b6000815180845260005b8181101561167e57602081850181015186830182015201611662565b506000602082860101526020601f19601f83011685010191505092915050565b60006101608d83526116b3602084018e611644565b60048c106116c3576116c361162e565b604083018c90526001600160a01b038b811660608501528a16608084015260a0830189905260c0830188905260e08301879052610100830181905261170a81840187611658565b905082810361012084015261171f8186611658565b9150508215156101408301529c9b505050505050505050505050565b8035600a811061174a57600080fd5b919050565b60008083601f84011261176157600080fd5b50813567ffffffffffffffff81111561177957600080fd5b60208301915083602082850101111561179157600080fd5b9250929050565b60008060008060008060008060c0898b0312156117b457600080fd5b883597506117c460208a0161173b565b965060408901359550606089013567ffffffffffffffff808211156117e857600080fd5b6117f48c838d0161174f565b909750955060808b013591508082111561180d57600080fd5b5061181a8b828c0161174f565b90945092505060a0890135801515811461183357600080fd5b809150509295985092959890939650565b60008060006040848603121561185957600080fd5b83359250602084013567ffffffffffffffff81111561187757600080fd5b6118838682870161174f565b9497909650939450505050565b80356001600160a01b038116811461174a57600080fd5b6000602082840312156118b957600080fd5b6118c282611890565b9392505050565b60008083601f8401126118db57600080fd5b50813567ffffffffffffffff8111156118f357600080fd5b6020830191508360208260051b850101111561179157600080fd5b600080600080600080600080600060a08a8c03121561192c57600080fd5b893567ffffffffffffffff8082111561194457600080fd5b6119508d838e016118c9565b909b50995060208c013591508082111561196957600080fd5b6119758d838e016118c9565b909950975060408c0135965060608c013591508082111561199557600080fd5b6119a18d838e016118c9565b909650945060808c01359150808211156119ba57600080fd5b506119c78c828d016118c9565b915080935050809150509295985092959850929598565b6020808252825182820181905260009190848201906040850190845b81811015611a16578351835292840192918401916001016119fa565b50909695505050505050565b86151581526001600160a01b038616602082015260408101859052611a4a6060820185611644565b60c060808201526000611a6060c0830185611658565b82810360a0840152611a728185611658565b9998505050505050505050565b60008060408385031215611a9257600080fd5b611a9b83611890565b946020939093013593505050565b60008060208385031215611abc57600080fd5b823567ffffffffffffffff811115611ad357600080fd5b611adf858286016118c9565b90969095509350505050565b600181811c90821680611aff57607f821691505b602082108103611b1f57634e487b7160e01b600052602260045260246000fd5b50919050565b634e487b7160e01b600052603260045260246000fd5b634e487b7160e01b600052601160045260246000fd5b600060018201611b6357611b63611b3b565b5060010190565b634e487b7160e01b600052604160045260246000fd5b601f82111561148f57600081815260208120601f850160051c81016020861015611ba75750805b601f850160051c820191505b81811015611bc657828155600101611bb3565b505050505050565b815167ffffffffffffffff811115611be857611be8611b6a565b611bfc81611bf68454611aeb565b84611b80565b602080601f831160018114611c315760008415611c195750858301515b600019600386901b1c1916600185901b178555611bc6565b600085815260208120601f198616915b82811015611c6057888601518255948401946001909101908401611c41565b5085821015611c7e5787850151600019600388901b60f8161c191681555b5050505050600190811b01905550565b81835281816020850137506000828201602090810191909152601f909101601f19169091010190565b611cc18186611644565b836020820152606060408201526000611cde606083018486611c8e565b9695505050505050565b60208082526018908201527f52656769737472793a206e6f7420612076657269666965720000000000000000604082015260600190565b602080825260139082015272149959da5cdd1c9e4e881b9bdd08199bdd5b99606a1b604082015260600190565b602081526000611d60602083018486611c8e565b949350505050565b600060208284031215611d7a57600080fd5b6118c28261173b565b6000808335601e19843603018112611d9a57600080fd5b83018035915067ffffffffffffffff821115611db557600080fd5b60200191503681900382131561179157600080fd5b80820180821115611ddd57611ddd611b3b565b92915050565b6020808252601390820152722932b3b4b9ba393c9d103737ba1037bbb732b960691b604082015260600190565b60208101611ddd828461164456fea26469706673582212209bfa8448cefe7b80919a6c7ba05c30d26925b2198f6564144cdef47f1c72cd8764736f6c63430008140033",
  "linkReferences": {},
  "deployedLinkReferences": {}
}