{"contracts/CLXToken.sol":{"CLXToken":{"abi":[{"inputs":[{"internalType":"address","name":"_treasury","type":"address"}],"stateMutability":"nonpayable","type":"constructor"},{"anonymous":false,"inputs":[{"indexed":true,"internalType":"address","name":"owner","type":"address"},{"indexed":true,"internalType":"address","name":"spender","type":"address"},{"indexed":false,"internalType":"uint256","name":"value","type":"uint256"}],"name":"Approval","type":"event"},{"anonymous":false,"inputs":[{"indexed":true,"internalType":"address","name":"escrow","type":"address"}],"name":"EscrowContractSet","type":"event"},{"anonymous":false,"inputs":[{"indexed":true,"internalType":"address","name":"user","type":"address"},{"indexed":false,"internalType":"uint256","name":"amount","type":"uint256"}],"name":"Staked","type":"event"},{"anonymous":false,"inputs":[{"indexed":true,"internalType":"address","name":"user","type":"address"},{"indexed":false,"internalType":"enum CLXToken.WalletTier","name":"tier","type":"uint8"}],"name":"TierAssigned","type":"event"},{"anonymous":false,"inputs":[],"name":"TradingEnabled","type":"event"},{"anonymous":false,"inputs":[{"indexed":true,"internalType":"address","name":"from","type":"address"},{"indexed":true,"internalType":"address","name":"to","type":"address"},{"indexed":false,"internalType":"uint256","name":"value","type":"uint256"}],"name":"Transfer","type":"event"},{"anonymous":false,"inputs":[{"indexed":true,"internalType":"address","name":"user","type":"address"},{"indexed":false,"internalType":"uint256","name":"amount","type":"uint256"},{"indexed":false,"internalType":"uint256","name":"reward","type":"uint256"}],"name":"Unstaked","type":"event"},{"inputs":[],"name":"FEE_DISCOUNT_BASIC","outputs":[{"internalType":"uint256","name":"","type":"uint256"}],"stateMutability":"view","type":"function"},{"inputs":[],"name":"FEE_DISCOUNT_ENTERPRISE","outputs":[{"internalType":"uint256","name":"","type":"uint256"}],"stateMutability":"view","type":"function"},{"inputs":[],"name":"FEE_DISCOUNT_PROFESSIONAL","outputs":[{"internalType":"uint256","name":"","type":"uint256"}],"stateMutability":"view","type":"function"},{"inputs":[],"name":"MIN_STAKE_PERIOD","outputs":[{"internalType":"uint256","name":"","type":"uint256"}],"stateMutability":"view","type":"function"},{"inputs":[],"name":"STAKE_REWARD_RATE","outputs":[{"internalType":"uint256","name":"","type":"uint256"}],"stateMutability":"view","type":"function"},{"inputs":[],"name":"TOTAL_SUPPLY","outputs":[{"internalType":"uint256","name":"","type":"uint256"}],"stateMutability":"view","type":"function"},{"inputs":[{"internalType":"address","name":"_owner","type":"address"},{"internalType":"address","name":"spender","type":"address"}],"name":"allowance","outputs":[{"internalType":"uint256","name":"","type":"uint256"}],"stateMutability":"view","type":"function"},{"inputs":[{"internalType":"address","name":"spender","type":"address"},{"internalType":"uint256","name":"amount","type":"uint256"}],"name":"approve","outputs":[{"internalType":"bool","name":"","type":"bool"}],"stateMutability":"nonpayable","type":"function"},{"inputs":[{"internalType":"address","name":"user","type":"address"},{"internalType":"enum CLXToken.WalletTier","name":"tier","type":"uint8"}],"name":"assignTier","outputs":[],"stateMutability":"nonpayable","type":"function"},{"inputs":[{"internalType":"address","name":"account","type":"address"}],"name":"balanceOf","outputs":[{"internalType":"uint256","name":"","type":"uint256"}],"stateMutability":"view","type":"function"},{"inputs":[],"name":"decimals","outputs":[{"internalType":"uint8","name":"","type":"uint8"}],"stateMutability":"view","type":"function"},{"inputs":[],"name":"enableTrading","outputs":[],"stateMutability":"nonpayable","type":"function"},{"inputs":[],"name":"escrowContract","outputs":[{"internalType":"address","name":"","type":"address"}],"stateMutability":"view","type":"function"},{"inputs":[{"internalType":"address","name":"user","type":"address"}],"name":"getFeeDiscount","outputs":[{"internalType":"uint256","name":"","type":"uint256"}],"stateMutability":"view","type":"function"},{"inputs":[],"name":"name","outputs":[{"internalType":"string","name":"","type":"string"}],"stateMutability":"view","type":"function"},{"inputs":[],"name":"owner","outputs":[{"internalType":"address","name":"","type":"address"}],"stateMutability":"view","type":"function"},{"inputs":[{"internalType":"address","name":"user","type":"address"}],"name":"pendingReward","outputs":[{"internalType":"uint256","name":"","type":"uint256"}],"stateMutability":"view","type":"function"},{"inputs":[{"internalType":"address","name":"_escrow","type":"address"}],"name":"setEscrowContract","outputs":[],"stateMutability":"nonpayable","type":"function"},{"inputs":[{"internalType":"uint256","name":"amount","type":"uint256"}],"name":"stake","outputs":[],"stateMutability":"nonpayable","type":"function"},{"inputs":[{"internalType":"address","name":"","type":"address"}],"name":"stakeTimestamp","outputs":[{"internalType":"uint256","name":"","type":"uint256"}],"stateMutability":"view","type":"function"},{"inputs":[{"internalType":"address","name":"","type":"address"}],"name":"stakedBalance","outputs":[{"internalType":"uint256","name":"","type":"uint256"}],"stateMutability":"view","type":"function"},{"inputs":[],"name":"symbol","outputs":[{"internalType":"string","name":"","type":"string"}],"stateMutability":"view","type":"function"},{"inputs":[],"name":"totalSupply","outputs":[{"internalType":"uint256","name":"","type":"uint256"}],"stateMutability":"pure","type":"function"},{"inputs":[],"name":"tradingEnabled","outputs":[{"internalType":"bool","name":"","type":"bool"}],"stateMutability":"view","type":"function"},{"inputs":[{"internalType":"address","name":"to","type":"address"},{"internalType":"uint256","name":"amount","type":"uint256"}],"name":"transfer","outputs":[{"internalType":"bool","name":"","type":"bool"}],"stateMutability":"nonpayable","type":"function"},{"inputs":[{"internalType":"address","name":"from","type":"address"},{"internalType":"address","name":"to","type":"address"},{"internalType":"uint256","name":"amount","type":"uint256"}],"name":"transferFrom","outputs":[{"internalType":"bool","name":"","type":"bool"}],"stateMutability":"nonpayable","type":"function"},{"inputs":[{"internalType":"address","name":"newOwner","type":"address"}],"name":"transferOwnership","outputs":[],"stateMutability":"nonpayable","type":"function"},{"inputs":[],"name":"unstake","outputs":[],"stateMutability":"nonpayable","type":"function"},{"inputs":[{"internalType":"address","name":"","type":"address"}],"name":"walletTier","outputs":[{"internalType":"enum CLXToken.WalletTier","name":"","type":"uint8"}],"stateMutability":"view","type":"function"}],"evm":{"bytecode":{"linkReferences":{},"object":"608060405234801561001057600080fd5b506040516110f93803806110f983398101604081905261002f916100ab565b600080546001600160a01b031916331781556001600160a01b038216808252600260205260408083206b033b2e3c9fd0803ce80000009081905590519192917fddf252ad1be2c89b69c2b068fc378daa952ba7f163c4a11628f55a4df523b3ef9161009d9190815260200190565b60405180910390a3506100db565b6000602082840312156100bd57600080fd5b81516001600160a01b03811681146100d457600080fd5b9392505050565b61100f806100ea6000396000f3fe608060405234801561001057600080fd5b50600436106101cf5760003560e01c80638da5cb5b11610104578063b7fa7cfc116100a2578063e42a96e711610071578063e42a96e71461044f578063f2fde38b14610462578063f40f0f5214610475578063f42375b51461048857600080fd5b8063b7fa7cfc146103f0578063bd97b58714610403578063d342f4841461040c578063dd62ed3e1461041657600080fd5b806395d89b41116100de57806395d89b4114610378578063a618b7e91461039a578063a694fc3a146103ca578063a9059cbb146103dd57600080fd5b80638da5cb5b1461033a5780638f261a62146102ac578063902d55a51461036557600080fd5b80633ed6c8f911610171578063602172671161014b57806360217267146102c957806370259077146102e957806370a08231146103095780638a8c523c1461033257600080fd5b80633ed6c8f9146102995780634130f058146102ac5780634ada218b146102b557600080fd5b80631e460f08116101ad5780631e460f081461025957806323b872dd146102625780632def662014610275578063313ce5671461027f57600080fd5b806306fdde03146101d4578063095ea7b31461021a57806318160ddd1461023d575b600080fd5b6102046040518060400160405280601181526020017021b937b9b9a632b233b2b9102a37b5b2b760791b81525081565b6040516102119190610d61565b60405180910390f35b61022d610228366004610dcb565b61049b565b6040519015158152602001610211565b6b033b2e3c9fd0803ce80000005b604051908152602001610211565b61024b610bb881565b61022d610270366004610df5565b610508565b61027d6105ce565b005b610287601281565b60405160ff9091168152602001610211565b61027d6102a7366004610e31565b61070a565b61024b6101f481565b60015461022d90600160a01b900460ff1681565b61024b6102d7366004610e6c565b60056020526000908152604090205481565b61024b6102f7366004610e6c565b60066020526000908152604090205481565b61024b610317366004610e6c565b6001600160a01b031660009081526002602052604090205490565b61027d6107a7565b60005461034d906001600160a01b031681565b6040516001600160a01b039091168152602001610211565b61024b6b033b2e3c9fd0803ce800000081565b6102046040518060400160405280600381526020016208698b60eb1b81525081565b6103bd6103a8366004610e6c565b60046020526000908152604090205460ff1681565b6040516102119190610e9d565b61027d6103d8366004610ec5565b61080f565b61022d6103eb366004610dcb565b610961565b61024b6103fe366004610e6c565b610977565b61024b6105dc81565b61024b62278d0081565b61024b610424366004610ede565b6001600160a01b03918216600090815260036020908152604080832093909416825291909152205490565b60015461034d906001600160a01b031681565b61027d610470366004610e6c565b610a05565b61024b610483366004610e6c565b610a77565b61027d610496366004610e6c565b610aa7565b3360008181526003602090815260408083206001600160a01b038716808552925280832085905551919290917f8c5be1e5ebec7d5bd14f71427d1e84f3dd0314c0f7b2291e5b200ac8c7c3b925906104f69086815260200190565b60405180910390a35060015b92915050565b6001600160a01b03831660009081526003602090815260408083203384529091528120548211156105805760405162461bcd60e51b815260206004820152601b60248201527f434c583a20696e73756666696369656e7420616c6c6f77616e6365000000000060448201526064015b60405180910390fd5b6001600160a01b0384166000908152600360209081526040808320338452909152812080548492906105b3908490610f27565b909155506105c49050848484610b41565b5060019392505050565b33600090815260056020526040902054806106215760405162461bcd60e51b815260206004820152601360248201527210d3160e881b9bdd1a1a5b99c81cdd185ad959606a1b6044820152606401610577565b3360009081526006602052604090205461063f9062278d0090610f3a565b42101561067f5760405162461bcd60e51b815260206004820152600e60248201526d434c583a20746f6f206561726c7960901b6044820152606401610577565b600061068a33610c8f565b3360009081526005602052604081205590506106a68183610f3a565b33600090815260026020526040812080549091906106c5908490610f3a565b9091555050604080518381526020810183905233917f7fc4727e062e336010f2c282598ef5f14facb3de68cf8195c2f23e1454b2b74e91015b60405180910390a25050565b6000546001600160a01b031633146107345760405162461bcd60e51b815260040161057790610f4d565b6001600160a01b0382166000908152600460205260409020805482919060ff1916600183600381111561076957610769610e87565b0217905550816001600160a01b03167f25a8e6b917872d4f0242d981f1efb363113f216dc7314bde01c287968defb51d826040516106fe9190610e9d565b6000546001600160a01b031633146107d15760405162461bcd60e51b815260040161057790610f4d565b6001805460ff60a01b1916600160a01b1790556040517f799663458a5ef2936f7fa0c99b3336c69c25890f82974f04e811e5bb359186c790600090a1565b600081116108515760405162461bcd60e51b815260206004820152600f60248201526e434c583a207a65726f207374616b6560881b6044820152606401610577565b336000908152600260205260409020548111156108ac5760405162461bcd60e51b8152602060048201526019602482015278434c583a20696e73756666696369656e742062616c616e636560381b6044820152606401610577565b33600090815260056020526040902054156108ca576108ca33610d01565b33600090815260026020526040812080548392906108e9908490610f27565b9091555050336000908152600560205260408120805483929061090d908490610f3a565b90915550503360008181526006602052604090819020429055517f9e71bc8eea02a63969f509818f2dafb9254532904319f9dbda79b67bd34a5f3d906109569084815260200190565b60405180910390a250565b600061096e338484610b41565b50600192915050565b6001600160a01b03811660009081526004602052604081205460ff1660038160038111156109a7576109a7610e87565b036109b65750610bb892915050565b60028160038111156109ca576109ca610e87565b036109d957506105dc92915050565b60018160038111156109ed576109ed610e87565b036109fc57506101f492915050565b50600092915050565b6000546001600160a01b03163314610a2f5760405162461bcd60e51b815260040161057790610f4d565b6001600160a01b038116610a555760405162461bcd60e51b815260040161057790610f75565b600080546001600160a01b0319166001600160a01b0392909216919091179055565b6001600160a01b0381166000908152600560205260408120548103610a9e57506000919050565b61050282610c8f565b6000546001600160a01b03163314610ad15760405162461bcd60e51b815260040161057790610f4d565b6001600160a01b038116610af75760405162461bcd60e51b815260040161057790610f75565b600180546001600160a01b0319166001600160a01b0383169081179091556040517fded808e17a47bf48d1a08e83e02563c8ff7f91d526f96d395bbce60d720d9d2990600090a250565b6001600160a01b03831615801590610b6157506001600160a01b03821615155b610b7d5760405162461bcd60e51b815260040161057790610f75565b6001600160a01b038316600090815260026020526040902054811115610be15760405162461bcd60e51b8152602060048201526019602482015278434c583a20696e73756666696369656e742062616c616e636560381b6044820152606401610577565b6001600160a01b03831660009081526002602052604081208054839290610c09908490610f27565b90915550506001600160a01b03821660009081526002602052604081208054839290610c36908490610f3a565b92505081905550816001600160a01b0316836001600160a01b03167fddf252ad1be2c89b69c2b068fc378daa952ba7f163c4a11628f55a4df523b3ef83604051610c8291815260200190565b60405180910390a3505050565b6001600160a01b0381166000908152600660205260408120548190610cb49042610f27565b6001600160a01b03841660009081526005602052604090205490915064496cebb800908290610ce6906101f490610fa0565b610cf09190610fa0565b610cfa9190610fb7565b9392505050565b6000610d0c82610c8f565b90508015610d5d576001600160a01b03821660009081526002602052604081208054839290610d3c908490610f3a565b90915550506001600160a01b03821660009081526006602052604090204290555b5050565b600060208083528351808285015260005b81811015610d8e57858101830151858201604001528201610d72565b506000604082860101526040601f19601f8301168501019250505092915050565b80356001600160a01b0381168114610dc657600080fd5b919050565b60008060408385031215610dde57600080fd5b610de783610daf565b946020939093013593505050565b600080600060608486031215610e0a57600080fd5b610e1384610daf565b9250610e2160208501610daf565b9150604084013590509250925092565b60008060408385031215610e4457600080fd5b610e4d83610daf565b9150602083013560048110610e6157600080fd5b809150509250929050565b600060208284031215610e7e57600080fd5b610cfa82610daf565b634e487b7160e01b600052602160045260246000fd5b6020810160048310610ebf57634e487b7160e01b600052602160045260246000fd5b91905290565b600060208284031215610ed757600080fd5b5035919050565b60008060408385031215610ef157600080fd5b610efa83610daf565b9150610f0860208401610daf565b90509250929050565b634e487b7160e01b600052601160045260246000fd5b8181038181111561050257610502610f11565b8082018082111561050257610502610f11565b6020808252600e908201526d21a62c1d103737ba1037bbb732b960911b604082015260600190565b602080825260119082015270434c583a207a65726f206164647265737360781b604082015260600190565b808202811582820484141761050257610502610f11565b600082610fd457634e487b7160e01b600052601260045260246000fd5b50049056fea2646970667358221220e42b672b2d28f187542bdd5c94179f39e0f7331f68c767c472f9a779714e638664736f6c63430008140033","opcodes":"PUSH1 0x80 PUSH1 0x40 MSTORE CALLVALUE DUP1 ISZERO PUSH2 0x10 JUMPI PUSH1 0x0 DUP1 REVERT JUMPDEST POP PUSH1 0x40 MLOAD PUSH2 0x10F9 CODESIZE SUB DUP1 PUSH2 0x10F9 DUP4 CODECOPY DUP2 ADD PUSH1 0x40 DUP2 SWAP1 MSTORE PUSH2 0x2F SWAP2 PUSH2 0xAB JUMP JUMPDEST PUSH1 0x0 DUP1 SLOAD PUSH1 0x1 PUSH1 0x1 PUSH1 0xA0 SHL SUB NOT AND CALLER OR DUP2 SSTORE PUSH1 0x1 PUSH1 0x1 PUSH1 0xA0 SHL SUB DUP3 AND DUP1 DUP3 MSTORE PUSH1 0x2 PUSH1 0x20 MSTORE PUSH1 0x40 DUP1 DUP4 KECCAK256 PUSH12 0x33B2E3C9FD0803CE8000000 SWAP1 DUP2 SWAP1 SSTORE SWAP1 MLOAD SWAP2 SWAP3 SWAP2 PUSH32 0xDDF252AD1BE2C89B69C2B068FC378DAA952BA7F163C4A11628F55A4DF523B3EF SWAP2 PUSH2 0x9D SWAP2 SWAP1 DUP2 MSTORE PUSH1 0x20 ADD SWAP1 JUMP JUMPDEST PUSH1 0x40 MLOAD DUP1 SWAP2 SUB SWAP1 LOG3 POP PUSH2 0xDB JUMP JUMPDEST PUSH1 0x0 PUSH1 0x20 DUP3 DUP5 SUB SLT ISZERO PUSH2 0xBD JUMPI PUSH1 0x0 DUP1 REVERT JUMPDEST DUP2 MLOAD PUSH1 0x1 PUSH1 0x1 PUSH1 0xA0 SHL SUB DUP2 AND DUP2 EQ PUSH2 0xD4 JUMPI PUSH1 0x0 DUP1 REVERT JUMPDEST SWAP4 SWAP3 POP POP POP JUMP JUMPDEST PUSH2 0x100F DUP1 PUSH2 0xEA PUSH1 0x0 CODECOPY PUSH1 0x0 RETURN INVALID PUSH1 0x80 PUSH1 0x40 MSTORE CALLVALUE DUP1 ISZERO PUSH2 0x10 JUMPI PUSH1 0x0 DUP1 REVERT JUMPDEST POP PUSH1 0x4 CALLDATASIZE LT PUSH2 0x1CF JUMPI PUSH1 0x0 CALLDATALOAD PUSH1 0xE0 SHR DUP1 PUSH4 0x8DA5CB5B GT PUSH2 0x104 JUMPI DUP1 PUSH4 0xB7FA7CFC GT PUSH2 0xA2 JUMPI DUP1 PUSH4 0xE42A96E7 GT PUSH2 0x71 JUMPI DUP1 PUSH4 0xE42A96E7 EQ PUSH2 0x44F JUMPI DUP1 PUSH4 0xF2FDE38B EQ PUSH2 0x462 JUMPI DUP1 PUSH4 0xF40F0F52 EQ PUSH2 0x475 JUMPI DUP1 PUSH4 0xF42375B5 EQ PUSH2 0x488 JUMPI PUSH1 0x0 DUP1 REVERT JUMPDEST DUP1 PUSH4 0xB7FA7CFC EQ PUSH2 0x3F0 JUMPI DUP1 PUSH4 0xBD97B587 EQ PUSH2 0x403 JUMPI DUP1 PUSH4 0xD342F484 EQ PUSH2 0x40C JUMPI DUP1 PUSH4 0xDD62ED3E EQ PUSH2 0x416 JUMPI PUSH1 0x0 DUP1 REVERT JUMPDEST DUP1 PUSH4 0x95D89B41 GT PUSH2 0xDE JUMPI DUP1 PUSH4 0x95D89B41 EQ PUSH2 0x378 JUMPI DUP1 PUSH4 0xA618B7E9 EQ PUSH2 0x39A JUMPI DUP1 PUSH4 0xA694FC3A EQ PUSH2 0x3CA JUMPI DUP1 PUSH4 0xA9059CBB EQ PUSH2 0x3DD JUMPI PUSH1 0x0 DUP1 REVERT JUMPDEST DUP1 PUSH4 0x8DA5CB5B EQ PUSH2 0x33A JUMPI DUP1 PUSH4 0x8F261A62 EQ PUSH2 0x2AC JUMPI DUP1 PUSH4 0x902D55A5 EQ PUSH2 0x365 JUMPI PUSH1 0x0 DUP1 REVERT JUMPDEST DUP1 PUSH4 0x3ED6C8F9 GT PUSH2 0x171 JUMPI DUP1 PUSH4 0x60217267 GT PUSH2 0x14B JUMPI DUP1 PUSH4 0x60217267 EQ PUSH2 0x2C9 JUMPI DUP1 PUSH4 0x70259077 EQ PUSH2 0x2E9 JUMPI DUP1 PUSH4 0x70A08231 EQ PUSH2 0x309 JUMPI DUP1 PUSH4 0x8A8C523C EQ PUSH2 0x332 JUMPI PUSH1 0x0 DUP1 REVERT JUMPDEST DUP1 PUSH4 0x3ED6C8F9 EQ PUSH2 0x299 JUMPI DUP1 PUSH4 0x4130F058 EQ PUSH2 0x2AC JUMPI DUP1 PUSH4 0x4ADA218B EQ PUSH2 0x2B5 JUMPI PUSH1 0x0 DUP1 REVERT JUMPDEST DUP1 PUSH4 0x1E460F08 GT PUSH2 0x1AD JUMPI DUP1 PUSH4 0x1E460F08 EQ PUSH2 0x259 JUMPI DUP1 PUSH4 0x23B872DD EQ PUSH2 0x262 JUMPI DUP1 PUSH4 0x2DEF6620 EQ PUSH2 0x275 JUMPI DUP1 PUSH4 0x313CE567 EQ PUSH2 0x27F JUMPI PUSH1 0x0 DUP1 REVERT JUMPDEST DUP1 PUSH4 0x6FDDE03 EQ PUSH2 0x1D4 JUMPI DUP1 PUSH4 0x95EA7B3 EQ PUSH2 0x21A JUMPI DUP1 PUSH4 0x18160DDD EQ PUSH2 0x23D JUMPI JUMPDEST PUSH1 0x0 DUP1 REVERT JUMPDEST PUSH2 0x204 PUSH1 0x40 MLOAD DUP1 PUSH1 0x40 ADD PUSH1 0x40 MSTORE DUP1 PUSH1 0x11 DUP2 MSTORE PUSH1 0x20 ADD PUSH17 0x21B937B9B9A632B233B2B9102A37B5B2B7 PUSH1 0x79 SHL DUP2 MSTORE POP DUP2 JUMP JUMPDEST PUSH1 0x40 MLOAD PUSH2 0x211 SWAP2 SWAP1 PUSH2 0xD61 JUMP JUMPDEST PUSH1 0x40 MLOAD DUP1 SWAP2 SUB SWAP1 RETURN JUMPDEST PUSH2 0x22D PUSH2 0x228 CALLDATASIZE PUSH1 0x4 PUSH2 0xDCB JUMP JUMPDEST PUSH2 0x49B JUMP JUMPDEST PUSH1 0x40 MLOAD SWAP1 ISZERO ISZERO DUP2 MSTORE PUSH1 0x20 ADD PUSH2 0x211 JUMP JUMPDEST PUSH12 0x33B2E3C9FD0803CE8000000 JUMPDEST PUSH1 0x40 MLOAD SWAP1 DUP2 MSTORE PUSH1 0x20 ADD PUSH2 0x211 JUMP JUMPDEST PUSH2 0x24B PUSH2 0xBB8 DUP2 JUMP JUMPDEST PUSH2 0x22D PUSH2 0x270 CALLDATASIZE PUSH1 0x4 PUSH2 0xDF5 JUMP JUMPDEST PUSH2 0x508 JUMP JUMPDEST PUSH2 0x27D PUSH2 0x5CE JUMP JUMPDEST STOP JUMPDEST PUSH2 0x287 PUSH1 0x12 DUP2 JUMP JUMPDEST PUSH1 0x40 MLOAD PUSH1 0xFF SWAP1 SWAP2 AND DUP2 MSTORE PUSH1 0x20 ADD PUSH2 0x211 JUMP JUMPDEST PUSH2 0x27D PUSH2 0x2A7 CALLDATASIZE PUSH1 0x4 PUSH2 0xE31 JUMP JUMPDEST PUSH2 0x70A JUMP JUMPDEST PUSH2 0x24B PUSH2 0x1F4 DUP2 JUMP JUMPDEST PUSH1 0x1 SLOAD PUSH2 0x22D SWAP1 PUSH1 0x1 PUSH1 0xA0 SHL SWAP1 DIV PUSH1 0xFF AND DUP2 JUMP JUMPDEST PUSH2 0x24B PUSH2 0x2D7 CALLDATASIZE PUSH1 0x4 PUSH2 0xE6C JUMP JUMPDEST PUSH1 0x5 PUSH1 0x20 MSTORE PUSH1 0x0 SWAP1 DUP2 MSTORE PUSH1 0x40 SWAP1 KECCAK256 SLOAD DUP2 JUMP JUMPDEST PUSH2 0x24B PUSH2 0x2F7 CALLDATASIZE PUSH1 0x4 PUSH2 0xE6C JUMP JUMPDEST PUSH1 0x6 PUSH1 0x20 MSTORE PUSH1 0x0 SWAP1 DUP2 MSTORE PUSH1 0x40 SWAP1 KECCAK256 SLOAD DUP2 JUMP JUMPDEST PUSH2 0x24B PUSH2 0x317 CALLDATASIZE PUSH1 0x4 PUSH2 0xE6C JUMP JUMPDEST PUSH1 0x1 PUSH1 0x1 PUSH1 0xA0 SHL SUB AND PUSH1 0x0 SWAP1 DUP2 MSTORE PUSH1 0x2 PUSH1 0x20 MSTORE PUSH1 0x40 SWAP1 KECCAK256 SLOAD SWAP1 JUMP JUMPDEST PUSH2 0x27D PUSH2 0x7A7 JUMP JUMPDEST PUSH1 0x0 SLOAD PUSH2 0x34D SWAP1 PUSH1 0x1 PUSH1 0x1 PUSH1 0xA0 SHL SUB AND DUP2 JUMP JUMPDEST PUSH1 0x40 MLOAD PUSH1 0x1 PUSH1 0x1 PUSH1 0xA0 SHL SUB SWAP1 SWAP2 AND DUP2 MSTORE PUSH1 0x20 ADD PUSH2 0x211 JUMP JUMPDEST PUSH2 0x24B PUSH12 0x33B2E3C9FD0803CE8000000 DUP2 JUMP JUMPDEST PUSH2 0x204 PUSH1 0x40 MLOAD DUP1 PUSH1 0x40 ADD PUSH1 0x40 MSTORE DUP1 PUSH1 0x3 DUP2 MSTORE PUSH1 0x20 ADD PUSH3 0x8698B PUSH1 0xEB SHL DUP2 MSTORE POP DUP2 JUMP JUMPDEST PUSH2 0x3BD PUSH2 0x3A8 CALLDATASIZE PUSH1 0x4 PUSH2 0xE6C JUMP JUMPDEST PUSH1 0x4 PUSH1 0x20 MSTORE PUSH1 0x0 SWAP1 DUP2 MSTORE PUSH1 0x40 SWAP1 KECCAK256 SLOAD PUSH1 0xFF AND DUP2 JUMP JUMPDEST PUSH1 0x40 MLOAD PUSH2 0x211 SWAP2 SWAP1 PUSH2 0xE9D JUMP JUMPDEST PUSH2 0x27D PUSH2 0x3D8 CALLDATASIZE PUSH1 0x4 PUSH2 0xEC5 JUMP JUMPDEST PUSH2 0x80F JUMP JUMPDEST PUSH2 0x22D PUSH2 0x3EB CALLDATASIZE PUSH1 0x4 PUSH2 0xDCB JUMP JUMPDEST PUSH2 0x961 JUMP JUMPDEST PUSH2 0x24B PUSH2 0x3FE CALLDATASIZE PUSH1 0x4 PUSH2 0xE6C JUMP JUMPDEST PUSH2 0x977 JUMP JUMPDEST PUSH2 0x24B PUSH2 0x5DC DUP2 JUMP JUMPDEST PUSH2 0x24B PUSH3 0x278D00 DUP2 JUMP JUMPDEST PUSH2 0x24B PUSH2 0x424 CALLDATASIZE PUSH1 0x4 PUSH2 0xEDE JUMP JUMPDEST PUSH1 0x1 PUSH1 0x1 PUSH1 0xA0 SHL SUB SWAP2 DUP3 AND PUSH1 0x0 SWAP1 DUP2 MSTORE PUSH1 0x3 PUSH1 0x20 SWAP1 DUP2 MSTORE PUSH1 0x40 DUP1 DUP4 KECCAK256 SWAP4 SWAP1 SWAP5 AND DUP3 MSTORE SWAP2 SWAP1 SWAP2 MSTORE KECCAK256 SLOAD SWAP1 JUMP JUMPDEST PUSH1 0x1 SLOAD PUSH2 0x34D SWAP1 PUSH1 0x1 PUSH1 0x1 PUSH1 0xA0 SHL SUB AND DUP2 JUMP JUMPDEST PUSH2 0x27D PUSH2 0x470 CALLDATASIZE PUSH1 0x4 PUSH2 0xE6C JUMP JUMPDEST PUSH2 0xA05 JUMP JUMPDEST PUSH2 0x24B PUSH2 0x483 CALLDATASIZE PUSH1 0x4 PUSH2 0xE6C JUMP JUMPDEST PUSH2 0xA77 JUMP JUMPDEST PUSH2 0x27D PUSH2 0x496 CALLDATASIZE PUSH1 0x4 PUSH2 0xE6C JUMP JUMPDEST PUSH2 0xAA7 JUMP JUMPDEST CALLER PUSH1 0x0 DUP2 DUP2 MSTORE PUSH1 0x3 PUSH1 0x20 SWAP1 DUP2 MSTORE PUSH1 0x40 DUP1 DUP4 KECCAK256 PUSH1 0x1 PUSH1 0x1 PUSH1 0xA0 SHL SUB DUP8 AND DUP1 DUP6 MSTORE SWAP3 MSTORE DUP1 DUP4 KECCAK256 DUP6 SWAP1 SSTORE MLOAD SWAP2 SWAP3 SWAP1 SWAP2 PUSH32 0x8C5BE1E5EBEC7D5BD14F71427D1E84F3DD0314C0F7B2291E5B200AC8C7C3B925 SWAP1 PUSH2 0x4F6 SWAP1 DUP7 DUP2 MSTORE PUSH1 0x20 ADD SWAP1 JUMP JUMPDEST PUSH1 0x40 MLOAD DUP1 SWAP2 SUB SWAP1 LOG3 POP PUSH1 0x1 JUMPDEST SWAP3 SWAP2 POP POP JUMP JUMPDEST PUSH1 0x1 PUSH1 0x1 PUSH1 0xA0 SHL SUB DUP4 AND PUSH1 0x0 SWAP1 DUP2 MSTORE PUSH1 0x3 PUSH1 0x20 SWAP1 DUP2 MSTORE PUSH1 0x40 DUP1 DUP4 KECCAK256 CALLER DUP5 MSTORE SWAP1 SWAP2 MSTORE DUP2 KECCAK256 SLOAD DUP3 GT ISZERO PUSH2 0x580 JUMPI PUSH1 0x40 MLOAD PUSH3 0x461BCD PUSH1 0xE5 SHL DUP2 MSTORE PUSH1 0x20 PUSH1 0x4 DUP3 ADD MSTORE PUSH1 0x1B PUSH1 0x24 DUP3 ADD MSTORE PUSH32 0x434C583A20696E73756666696369656E7420616C6C6F77616E63650000000000 PUSH1 0x44 DUP3 ADD MSTORE PUSH1 0x64 ADD JUMPDEST PUSH1 0x40 MLOAD DUP1 SWAP2 SUB SWAP1 REVERT JUMPDEST PUSH1 0x1 PUSH1 0x1 PUSH1 0xA0 SHL SUB DUP5 AND PUSH1 0x0 SWAP1 DUP2 MSTORE PUSH1 0x3 PUSH1 0x20 SWAP1 DUP2 MSTORE PUSH1 0x40 DUP1 DUP4 KECCAK256 CALLER DUP5 MSTORE SWAP1 SWAP2 MSTORE DUP2 KECCAK256 DUP1 SLOAD DUP5 SWAP3 SWAP1 PUSH2 0x5B3 SWAP1 DUP5 SWAP1 PUSH2 0xF27 JUMP JUMPDEST SWAP1 SWAP2 SSTORE POP PUSH2 0x5C4 SWAP1 POP DUP5 DUP5 DUP5 PUSH2 0xB41 JUMP JUMPDEST POP PUSH1 0x1 SWAP4 SWAP3 POP POP POP JUMP JUMPDEST CALLER PUSH1 0x0 SWAP1 DUP2 MSTORE PUSH1 0x5 PUSH1 0x20 MSTORE PUSH1 0x40 SWAP1 KECCAK256 SLOAD DUP1 PUSH2 0x621 JUMPI PUSH1 0x40 MLOAD PUSH3 0x461BCD PUSH1 0xE5 SHL DUP2 MSTORE PUSH1 0x20 PUSH1 0x4 DUP3 ADD MSTORE PUSH1 0x13 PUSH1 0x24 DUP3 ADD MSTORE PUSH19 0x10D3160E881B9BDD1A1A5B99C81CDD185AD959 PUSH1 0x6A SHL PUSH1 0x44 DUP3 ADD MSTORE PUSH1 0x64 ADD PUSH2 0x577 JUMP JUMPDEST CALLER PUSH1 0x0 SWAP1 DUP2 MSTORE PUSH1 0x6 PUSH1 0x20 MSTORE PUSH1 0x40 SWAP1 KECCAK256 SLOAD PUSH2 0x63F SWAP1 PUSH3 0x278D00 SWAP1 PUSH2 0xF3A JUMP JUMPDEST TIMESTAMP LT ISZERO PUSH2 0x67F JUMPI PUSH1 0x40 MLOAD PUSH3 0x461BCD PUSH1 0xE5 SHL DUP2 MSTORE PUSH1 0x20 PUSH1 0x4 DUP3 ADD MSTORE PUSH1 0xE PUSH1 0x24 DUP3 ADD MSTORE PUSH14 0x434C583A20746F6F206561726C79 PUSH1 0x90 SHL PUSH1 0x44 DUP3 ADD MSTORE PUSH1 0x64 ADD PUSH2 0x577 JUMP JUMPDEST PUSH1 0x0 PUSH2 0x68A CALLER PUSH2 0xC8F JUMP JUMPDEST CALLER PUSH1 0x0 SWAP1 DUP2 MSTORE PUSH1 0x5 PUSH1 0x20 MSTORE PUSH1 0x40 DUP2 KECCAK256 SSTORE SWAP1 POP PUSH2 0x6A6 DUP2 DUP4 PUSH2 0xF3A JUMP JUMPDEST CALLER PUSH1 0x0 SWAP1 DUP2 MSTORE PUSH1 0x2 PUSH1 0x20 MSTORE PUSH1 0x40 DUP2 KECCAK256 DUP1 SLOAD SWAP1 SWAP2 SWAP1 PUSH2 0x6C5 SWAP1 DUP5 SWAP1 PUSH2 0xF3A JUMP JUMPDEST SWAP1 SWAP2 SSTORE POP POP PUSH1 0x40 DUP1 MLOAD DUP4 DUP2 MSTORE PUSH1 0x20 DUP2 ADD DUP4 SWAP1 MSTORE CALLER SWAP2 PUSH32 0x7FC4727E062E336010F2C282598EF5F14FACB3DE68CF8195C2F23E1454B2B74E SWAP2 ADD JUMPDEST PUSH1 0x40 MLOAD DUP1 SWAP2 SUB SWAP1 LOG2 POP POP JUMP JUMPDEST PUSH1 0x0 SLOAD PUSH1 0x1 PUSH1 0x1 PUSH1 0xA0 SHL SUB AND CALLER EQ PUSH2 0x734 JUMPI PUSH1 0x40 MLOAD PUSH3 0x461BCD PUSH1 0xE5 SHL DUP2 MSTORE PUSH1 0x4 ADD PUSH2 0x577 SWAP1 PUSH2 0xF4D JUMP JUMPDEST PUSH1 0x1 PUSH1 0x1 PUSH1 0xA0 SHL SUB DUP3 AND PUSH1 0x0 SWAP1 DUP2 MSTORE PUSH1 0x4 PUSH1 0x20 MSTORE PUSH1 0x40 SWAP1 KECCAK256 DUP1 SLOAD DUP3 SWAP2 SWAP1 PUSH1 0xFF NOT AND PUSH1 0x1 DUP4 PUSH1 0x3 DUP2 GT ISZERO PUSH2 0x769 JUMPI PUSH2 0x769 PUSH2 0xE87 JUMP JUMPDEST MUL OR SWAP1 SSTORE POP DUP2 PUSH1 0x1 PUSH1 0x1 PUSH1 0xA0 SHL SUB AND PUSH32 0x25A8E6B917872D4F0242D981F1EFB363113F216DC7314BDE01C287968DEFB51D DUP3 PUSH1 0x40 MLOAD PUSH2 0x6FE SWAP2 SWAP1 PUSH2 0xE9D JUMP JUMPDEST PUSH1 0x0 SLOAD PUSH1 0x1 PUSH1 0x1 PUSH1 0xA0 SHL SUB AND CALLER EQ PUSH2 0x7D1 JUMPI PUSH1 0x40 MLOAD PUSH3 0x461BCD PUSH1 0xE5 SHL DUP2 MSTORE PUSH1 0x4 ADD PUSH2 0x577 SWAP1 PUSH2 0xF4D JUMP JUMPDEST PUSH1 0x1 DUP1 SLOAD PUSH1 0xFF PUSH1 0xA0 SHL NOT AND PUSH1 0x1 PUSH1 0xA0 SHL OR SWAP1 SSTORE PUSH1 0x40 MLOAD PUSH32 0x799663458A5EF2936F7FA0C99B3336C69C25890F82974F04E811E5BB359186C7 SWAP1 PUSH1 0x0 SWAP1 LOG1 JUMP JUMPDEST PUSH1 0x0 DUP2 GT PUSH2 0x851 JUMPI PUSH1 0x40 MLOAD PUSH3 0x461BCD PUSH1 0xE5 SHL DUP2 MSTORE PUSH1 0x20 PUSH1 0x4 DUP3 ADD MSTORE PUSH1 0xF PUSH1 0x24 DUP3 ADD MSTORE PUSH15 0x434C583A207A65726F207374616B65 PUSH1 0x88 SHL PUSH1 0x44 DUP3 ADD MSTORE PUSH1 0x64 ADD PUSH2 0x577 JUMP JUMPDEST CALLER PUSH1 0x0 SWAP1 DUP2 MSTORE PUSH1 0x2 PUSH1 0x20 MSTORE PUSH1 0x40 SWAP1 KECCAK256 SLOAD DUP2 GT ISZERO PUSH2 0x8AC JUMPI PUSH1 0x40 MLOAD PUSH3 0x461BCD PUSH1 0xE5 SHL DUP2 MSTORE PUSH1 0x20 PUSH1 0x4 DUP3 ADD MSTORE PUSH1 0x19 PUSH1 0x24 DUP3 ADD MSTORE PUSH25 0x434C583A20696E73756666696369656E742062616C616E6365 PUSH1 0x38 SHL PUSH1 0x44 DUP3 ADD MSTORE PUSH1 0x64 ADD PUSH2 0x577 JUMP JUMPDEST CALLER PUSH1 0x0 SWAP1 DUP2 MSTORE PUSH1 0x5 PUSH1 0x20 MSTORE PUSH1 0x40 SWAP1 KECCAK256 SLOAD ISZERO PUSH2 0x8CA JUMPI PUSH2 0x8CA CALLER PUSH2 0xD01 JUMP JUMPDEST CALLER PUSH1 0x0 SWAP1 DUP2 MSTORE PUSH1 0x2 PUSH1 0x20 MSTORE PUSH1 0x40 DUP2 KECCAK256 DUP1 SLOAD DUP4 SWAP3 SWAP1 PUSH2 0x8E9 SWAP1 DUP5 SWAP1 PUSH2 0xF27 JUMP JUMPDEST SWAP1 SWAP2 SSTORE POP POP CALLER PUSH1 0x0 SWAP1 DUP2 MSTORE PUSH1 0x5 PUSH1 0x20 MSTORE PUSH1 0x40 DUP2 KECCAK256 DUP1 SLOAD DUP4 SWAP3 SWAP1 PUSH2 0x90D SWAP1 DUP5 SWAP1 PUSH2 0xF3A JUMP JUMPDEST SWAP1 SWAP2 SSTORE POP POP CALLER PUSH1 0x0 DUP2 DUP2 MSTORE PUSH1 0x6 PUSH1 0x20 MSTORE PUSH1 0x40 SWAP1 DUP2 SWAP1 KECCAK256 TIMESTAMP SWAP1 SSTORE MLOAD PUSH32 0x9E71BC8EEA02A63969F509818F2DAFB9254532904319F9DBDA79B67BD34A5F3D SWAP1 PUSH2 0x956 SWAP1 DUP5 DUP2 MSTORE PUSH1 0x20 ADD SWAP1 JUMP JUMPDEST PUSH1 0x40 MLOAD DUP1 SWAP2 SUB SWAP1 LOG2 POP JUMP JUMPDEST PUSH1 0x0 PUSH2 0x96E CALLER DUP5 DUP5 PUSH2 0xB41 JUMP JUMPDEST POP PUSH1 0x1 SWAP3 SWAP2 POP POP JUMP JUMPDEST PUSH1 0x1 PUSH1 0x1 PUSH1 0xA0 SHL SUB DUP2 AND PUSH1 0x0 SWAP1 DUP2 MSTORE PUSH1 0x4 PUSH1 0x20 MSTORE PUSH1 0x40 DUP2 KECCAK256 SLOAD PUSH1 0xFF AND PUSH1 0x3 DUP2 PUSH1 0x3 DUP2 GT ISZERO PUSH2 0x9A7 JUMPI PUSH2 0x9A7 PUSH2 0xE87 JUMP JUMPDEST SUB PUSH2 0x9B6 JUMPI POP PUSH2 0xBB8 SWAP3 SWAP2 POP POP JUMP JUMPDEST PUSH1 0x2 DUP2 PUSH1 0x3 DUP2 GT ISZERO PUSH2 0x9CA JUMPI PUSH2 0x9CA PUSH2 0xE87 JUMP JUMPDEST SUB PUSH2 0x9D9 JUMPI POP PUSH2 0x5DC SWAP3 SWAP2 POP POP JUMP JUMPDEST PUSH1 0x1 DUP2 PUSH1 0x3 DUP2 GT ISZERO PUSH2 0x9ED JUMPI PUSH2 0x9ED PUSH2 0xE87 JUMP JUMPDEST SUB PUSH2 0x9FC JUMPI POP PUSH2 0x1F4 SWAP3 SWAP2 POP POP JUMP JUMPDEST POP PUSH1 0x0 SWAP3 SWAP2 POP POP JUMP JUMPDEST PUSH1 0x0 SLOAD PUSH1 0x1 PUSH1 0x1 PUSH1 0xA0 SHL SUB AND CALLER EQ PUSH2 0xA2F JUMPI PUSH1 0x40 MLOAD PUSH3 0x461BCD PUSH1 0xE5 SHL DUP2 MSTORE PUSH1 0x4 ADD PUSH2 0x577 SWAP1 PUSH2 0xF4D JUMP JUMPDEST PUSH1 0x1 PUSH1 0x1 PUSH1 0xA0 SHL SUB DUP2 AND PUSH2 0xA55 JUMPI PUSH1 0x40 MLOAD PUSH3 0x461BCD PUSH1 0xE5 SHL DUP2 MSTORE PUSH1 0x4 ADD PUSH2 0x577 SWAP1 PUSH2 0xF75 JUMP JUMPDEST PUSH1 0x0 DUP1 SLOAD PUSH1 0x1 PUSH1 0x1 PUSH1 0xA0 SHL SUB NOT AND PUSH1 0x1 PUSH1 0x1 PUSH1 0xA0 SHL SUB SWAP3 SWAP1 SWAP3 AND SWAP2 SWAP1 SWAP2 OR SWAP1 SSTORE JUMP JUMPDEST PUSH1 0x1 PUSH1 0x1 PUSH1 0xA0 SHL SUB DUP2 AND PUSH1 0x0 SWAP1 DUP2 MSTORE PUSH1 0x5 PUSH1 0x20 MSTORE PUSH1 0x40 DUP2 KECCAK256 SLOAD DUP2 SUB PUSH2 0xA9E JUMPI POP PUSH1 0x0 SWAP2 SWAP1 POP JUMP JUMPDEST PUSH2 0x502 DUP3 PUSH2 0xC8F JUMP JUMPDEST PUSH1 0x0 SLOAD PUSH1 0x1 PUSH1 0x1 PUSH1 0xA0 SHL SUB AND CALLER EQ PUSH2 0xAD1 JUMPI PUSH1 0x40 MLOAD PUSH3 0x461BCD PUSH1 0xE5 SHL DUP2 MSTORE PUSH1 0x4 ADD PUSH2 0x577 SWAP1 PUSH2 0xF4D JUMP JUMPDEST PUSH1 0x1 PUSH1 0x1 PUSH1 0xA0 SHL SUB DUP2 AND PUSH2 0xAF7 JUMPI PUSH1 0x40 MLOAD PUSH3 0x461BCD PUSH1 0xE5 SHL DUP2 MSTORE PUSH1 0x4 ADD PUSH2 0x577 SWAP1 PUSH2 0xF75 JUMP JUMPDEST PUSH1 0x1 DUP1 SLOAD PUSH1 0x1 PUSH1 0x1 PUSH1 0xA0 SHL SUB NOT AND PUSH1 0x1 PUSH1 0x1 PUSH1 0xA0 SHL SUB DUP4 AND SWAP1 DUP2 OR SWAP1 SWAP2 SSTORE PUSH1 0x40 MLOAD PUSH32 0xDED808E17A47BF48D1A08E83E02563C8FF7F91D526F96D395BBCE60D720D9D29 SWAP1 PUSH1 0x0 SWAP1 LOG2 POP JUMP JUMPDEST PUSH1 0x1 PUSH1 0x1 PUSH1 0xA0 SHL SUB DUP4 AND ISZERO DUP1 ISZERO SWAP1 PUSH2 0xB61 JUMPI POP PUSH1 0x1 PUSH1 0x1 PUSH1 0xA0 SHL SUB DUP3 AND ISZERO ISZERO JUMPDEST PUSH2 0xB7D JUMPI PUSH1 0x40 MLOAD PUSH3 0x461BCD PUSH1 0xE5 SHL DUP2 MSTORE PUSH1 0x4 ADD PUSH2 0x577 SWAP1 PUSH2 0xF75 JUMP JUMPDEST PUSH1 0x1 PUSH1 0x1 PUSH1 0xA0 SHL SUB DUP4 AND PUSH1 0x0 SWAP1 DUP2 MSTORE PUSH1 0x2 PUSH1 0x20 MSTORE PUSH1 0x40 SWAP1 KECCAK256 SLOAD DUP2 GT ISZERO PUSH2 0xBE1 JUMPI PUSH1 0x40 MLOAD PUSH3 0x461BCD PUSH1 0xE5 SHL DUP2 MSTORE PUSH1 0x20 PUSH1 0x4 DUP3 ADD MSTORE PUSH1 0x19 PUSH1 0x24 DUP3 ADD MSTORE PUSH25 0x434C583A20696E73756666696369656E742062616C616E6365 PUSH1 0x38 SHL PUSH1 0x44 DUP3 ADD MSTORE PUSH1 0x64 ADD PUSH2 0x577 JUMP JUMPDEST PUSH1 0x1 PUSH1 0x1 PUSH1 0xA0 SHL SUB DUP4 AND PUSH1 0x0 SWAP1 DUP2 MSTORE PUSH1 0x2 PUSH1 0x20 MSTORE PUSH1 0x40 DUP2 KECCAK256 DUP1 SLOAD DUP4 SWAP3 SWAP1 PUSH2 0xC09 SWAP1 DUP5 SWAP1 PUSH2 0xF27 JUMP JUMPDEST SWAP1 SWAP2 SSTORE POP POP PUSH1 0x1 PUSH1 0x1 PUSH1 0xA0 SHL SUB DUP3 AND PUSH1 0x0 SWAP1 DUP2 MSTORE PUSH1 0x2 PUSH1 0x20 MSTORE PUSH1 0x40 DUP2 KECCAK256 DUP1 SLOAD DUP4 SWAP3 SWAP1 PUSH2 0xC36 SWAP1 DUP5 SWAP1 PUSH2 0xF3A JUMP JUMPDEST SWAP3 POP POP DUP2 SWAP1 SSTORE POP DUP2 PUSH1 0x1 PUSH1 0x1 PUSH1 0xA0 SHL SUB AND DUP4 PUSH1 0x1 PUSH1 0x1 PUSH1 0xA0 SHL SUB AND PUSH32 0xDDF252AD1BE2C89B69C2B068FC378DAA952BA7F163C4A11628F55A4DF523B3EF DUP4 PUSH1 0x40 MLOAD PUSH2 0xC82 SWAP2 DUP2 MSTORE PUSH1 0x20 ADD SWAP1 JUMP JUMPDEST PUSH1 0x40 MLOAD DUP1 SWAP2 SUB SWAP1 LOG3 POP POP POP JUMP JUMPDEST PUSH1 0x1 PUSH1 0x1 PUSH1 0xA0 SHL SUB DUP2 AND PUSH1 0x0 SWAP1 DUP2 MSTORE PUSH1 0x6 PUSH1 0x20 MSTORE PUSH1 0x40 DUP2 KECCAK256 SLOAD DUP2 SWAP1 PUSH2 0xCB4 SWAP1 TIMESTAMP PUSH2 0xF27 JUMP JUMPDEST PUSH1 0x1 PUSH1 0x1 PUSH1 0xA0 SHL SUB DUP5 AND PUSH1 0x0 SWAP1 DUP2 MSTORE PUSH1 0x5 PUSH1 0x20 MSTORE PUSH1 0x40 SWAP1 KECCAK256 SLOAD SWAP1 SWAP2 POP PUSH5 0x496CEBB800 SWAP1 DUP3 SWAP1 PUSH2 0xCE6 SWAP1 PUSH2 0x1F4 SWAP1 PUSH2 0xFA0 JUMP JUMPDEST PUSH2 0xCF0 SWAP2 SWAP1 PUSH2 0xFA0 JUMP JUMPDEST PUSH2 0xCFA SWAP2 SWAP1 PUSH2 0xFB7 JUMP JUMPDEST SWAP4 SWAP3 POP POP POP JUMP JUMPDEST PUSH1 0x0 PUSH2 0xD0C DUP3 PUSH2 0xC8F JUMP JUMPDEST SWAP1 POP DUP1 ISZERO PUSH2 0xD5D JUMPI PUSH1 0x1 PUSH1 0x1 PUSH1 0xA0 SHL SUB DUP3 AND PUSH1 0x0 SWAP1 DUP2 MSTORE PUSH1 0x2 PUSH1 0x20 MSTORE PUSH1 0x40 DUP2 KECCAK256 DUP1 SLOAD DUP4 SWAP3 SWAP1 PUSH2 0xD3C SWAP1 DUP5 SWAP1 PUSH2 0xF3A JUMP JUMPDEST SWAP1 SWAP2 SSTORE POP POP PUSH1 0x1 PUSH1 0x1 PUSH1 0xA0 SHL SUB DUP3 AND PUSH1 0x0 SWAP1 DUP2 MSTORE PUSH1 0x6 PUSH1 0x20 MSTORE PUSH1 0x40 SWAP1 KECCAK256 TIMESTAMP SWAP1 SSTORE JUMPDEST POP POP JUMP JUMPDEST PUSH1 0x0 PUSH1 0x20 DUP1 DUP4 MSTORE DUP4 MLOAD DUP1 DUP3 DUP6 ADD MSTORE PUSH1 0x0 JUMPDEST DUP2 DUP2 LT ISZERO PUSH2 0xD8E JUMPI DUP6 DUP2 ADD DUP4 ADD MLOAD DUP6 DUP3 ADD PUSH1 0x40 ADD MSTORE DUP3 ADD PUSH2 0xD72 JUMP JUMPDEST POP PUSH1 0x0 PUSH1 0x40 DUP3 DUP7 ADD ADD MSTORE PUSH1 0x40 PUSH1 0x1F NOT PUSH1 0x1F DUP4 ADD AND DUP6 ADD ADD SWAP3 POP POP POP SWAP3 SWAP2 POP POP JUMP JUMPDEST DUP1 CALLDATALOAD PUSH1 0x1 PUSH1 0x1 PUSH1 0xA0 SHL SUB DUP2 AND DUP2 EQ PUSH2 0xDC6 JUMPI PUSH1 0x0 DUP1 REVERT JUMPDEST SWAP2 SWAP1 POP JUMP JUMPDEST PUSH1 0x0 DUP1 PUSH1 0x40 DUP4 DUP6 SUB SLT ISZERO PUSH2 0xDDE JUMPI PUSH1 0x0 DUP1 REVERT JUMPDEST PUSH2 0xDE7 DUP4 PUSH2 0xDAF JUMP JUMPDEST SWAP5 PUSH1 0x20 SWAP4 SWAP1 SWAP4 ADD CALLDATALOAD SWAP4 POP POP POP JUMP JUMPDEST PUSH1 0x0 DUP1 PUSH1 0x0 PUSH1 0x60 DUP5 DUP7 SUB SLT ISZERO PUSH2 0xE0A JUMPI PUSH1 0x0 DUP1 REVERT JUMPDEST PUSH2 0xE13 DUP5 PUSH2 0xDAF JUMP JUMPDEST SWAP3 POP PUSH2 0xE21 PUSH1 0x20 DUP6 ADD PUSH2 0xDAF JUMP JUMPDEST SWAP2 POP PUSH1 0x40 DUP5 ADD CALLDATALOAD SWAP1 POP SWAP3 POP SWAP3 POP SWAP3 JUMP JUMPDEST PUSH1 0x0 DUP1 PUSH1 0x40 DUP4 DUP6 SUB SLT ISZERO PUSH2 0xE44 JUMPI PUSH1 0x0 DUP1 REVERT JUMPDEST PUSH2 0xE4D DUP4 PUSH2 0xDAF JUMP JUMPDEST SWAP2 POP PUSH1 0x20 DUP4 ADD CALLDATALOAD PUSH1 0x4 DUP2 LT PUSH2 0xE61 JUMPI PUSH1 0x0 DUP1 REVERT JUMPDEST DUP1 SWAP2 POP POP SWAP3 POP SWAP3 SWAP1 POP JUMP JUMPDEST PUSH1 0x0 PUSH1 0x20 DUP3 DUP5 SUB SLT ISZERO PUSH2 0xE7E JUMPI PUSH1 0x0 DUP1 REVERT JUMPDEST PUSH2 0xCFA DUP3 PUSH2 0xDAF JUMP JUMPDEST PUSH4 0x4E487B71 PUSH1 0xE0 SHL PUSH1 0x0 MSTORE PUSH1 0x21 PUSH1 0x4 MSTORE PUSH1 0x24 PUSH1 0x0 REVERT JUMPDEST PUSH1 0x20 DUP2 ADD PUSH1 0x4 DUP4 LT PUSH2 0xEBF JUMPI PUSH4 0x4E487B71 PUSH1 0xE0 SHL PUSH1 0x0 MSTORE PUSH1 0x21 PUSH1 0x4 MSTORE PUSH1 0x24 PUSH1 0x0 REVERT JUMPDEST SWAP2 SWAP1 MSTORE SWAP1 JUMP JUMPDEST PUSH1 0x0 PUSH1 0x20 DUP3 DUP5 SUB SLT ISZERO PUSH2 0xED7 JUMPI PUSH1 0x0 DUP1 REVERT JUMPDEST POP CALLDATALOAD SWAP2 SWAP1 POP JUMP JUMPDEST PUSH1 0x0 DUP1 PUSH1 0x40 DUP4 DUP6 SUB SLT ISZERO PUSH2 0xEF1 JUMPI PUSH1 0x0 DUP1 REVERT JUMPDEST PUSH2 0xEFA DUP4 PUSH2 0xDAF JUMP JUMPDEST SWAP2 POP PUSH2 0xF08 PUSH1 0x20 DUP5 ADD PUSH2 0xDAF JUMP JUMPDEST SWAP1 POP SWAP3 POP SWAP3 SWAP1 POP JUMP JUMPDEST PUSH4 0x4E487B71 PUSH1 0xE0 SHL PUSH1 0x0 MSTORE PUSH1 0x11 PUSH1 0x4 MSTORE PUSH1 0x24 PUSH1 0x0 REVERT JUMPDEST DUP2 DUP2 SUB DUP2 DUP2 GT ISZERO PUSH2 0x502 JUMPI PUSH2 0x502 PUSH2 0xF11 JUMP JUMPDEST DUP1 DUP3 ADD DUP1 DUP3 GT ISZERO PUSH2 0x502 JUMPI PUSH2 0x502 PUSH2 0xF11 JUMP JUMPDEST PUSH1 0x20 DUP1 DUP3 MSTORE PUSH1 0xE SWAP1 DUP3 ADD MSTORE PUSH14 0x21A62C1D103737BA1037BBB732B9 PUSH1 0x91 SHL PUSH1 0x40 DUP3 ADD MSTORE PUSH1 0x60 ADD SWAP1 JUMP JUMPDEST PUSH1 0x20 DUP1 DUP3 MSTORE PUSH1 0x11 SWAP1 DUP3 ADD MSTORE PUSH17 0x434C583A207A65726F2061646472657373 PUSH1 0x78 SHL PUSH1 0x40 DUP3 ADD MSTORE PUSH1 0x60 ADD SWAP1 JUMP JUMPDEST DUP1 DUP3 MUL DUP2 ISZERO DUP3 DUP3 DIV DUP5 EQ OR PUSH2 0x502 JUMPI PUSH2 0x502 PUSH2 0xF11 JUMP JUMPDEST PUSH1 0x0 DUP3 PUSH2 0xFD4 JUMPI PUSH4 0x4E487B71 PUSH1 0xE0 SHL PUSH1 0x0 MSTORE PUSH1 0x12 PUSH1 0x4 MSTORE PUSH1 0x24 PUSH1 0x0 REVERT JUMPDEST POP DIV SWAP1 JUMP INVALID LOG2 PUSH5 0x6970667358 0x22 SLT KECCAK256 0xE4 0x2B PUSH8 0x2B2D28F187542BDD 0x5C SWAP5 OR SWAP16 CODECOPY 0xE0 0xF7 CALLER 0x1F PUSH9 0xC767C472F9A779714E PUSH4 0x8664736F PUSH13 0x63430008140033000000000000 "},"methodIdentifiers":{"FEE_DISCOUNT_BASIC()":"4130f058","FEE_DISCOUNT_ENTERPRISE()":"1e460f08","FEE_DISCOUNT_PROFESSIONAL()":"bd97b587","MIN_STAKE_PERIOD()":"d342f484","STAKE_REWARD_RATE()":"8f261a62","TOTAL_SUPPLY()":"902d55a5","allowance(address,address)":"dd62ed3e","approve(address,uint256)":"095ea7b3","assignTier(address,uint8)":"3ed6c8f9","balanceOf(address)":"70a08231","decimals()":"313ce567","enableTrading()":"8a8c523c","escrowContract()":"e42a96e7","getFeeDiscount(address)":"b7fa7cfc","name()":"06fdde03","owner()":"8da5cb5b","pendingReward(address)":"f40f0f52","setEscrowContract(address)":"f42375b5","stake(uint256)":"a694fc3a","stakeTimestamp(address)":"70259077","stakedBalance(address)":"60217267","symbol()":"95d89b41","totalSupply()":"18160ddd","tradingEnabled()":"4ada218b","transfer(address,uint256)":"a9059cbb","transferFrom(address,address,uint256)":"23b872dd","transferOwnership(address)":"f2fde38b","unstake()":"2def6620","walletTier(address)":"a618b7e9"}}}}}