{
  "_format": "hh-sol-artifact-1",
  "contractName": "CLXToken",
  "sourceName": "contracts/CLXToken.sol",
  "abi": [
    {
      "inputs": [
        {
          "internalType": "address",
          "name": "_treasury",
          "type": "address"
        }
      ],
      "stateMutability": "nonpayable",
      "type": "constructor"
    },
    {
      "anonymous": false,
      "inputs": [
        {
          "indexed": true,
          "internalType": "address",
          "name": "owner",
          "type": "address"
        },
        {
          "indexed": true,
          "internalType": "address",
          "name": "spender",
          "type": "address"
        },
        {
          "indexed": false,
          "internalType": "uint256",
          "name": "value",
          "type": "uint256"
        }
      ],
      "name": "Approval",
      "type": "event"
    },
    {
      "anonymous": false,
      "inputs": [
        {
          "indexed": true,
          "internalType": "address",
          "name": "escrow",
          "type": "address"
        }
      ],
      "name": "EscrowContractSet",
      "type": "event"
    },
    {
      "anonymous": false,
      "inputs": [
        {
          "indexed": true,
          "internalType": "address",
          "name": "user",
          "type": "address"
        },
        {
          "indexed": false,
          "internalType": "uint256",
          "name": "amount",
          "type": "uint256"
        }
      ],
      "name": "Staked",
      "type": "event"
    },
    {
      "anonymous": false,
      "inputs": [
        {
          "indexed": true,
          "internalType": "address",
          "name": "user",
          "type": "address"
        },
        {
          "indexed": false,
          "internalType": "enum CLXToken.WalletTier",
          "name": "tier",
          "type": "uint8"
        }
      ],
      "name": "TierAssigned",
      "type": "event"
    },
    {
      "anonymous": false,
      "inputs": [],
      "name": "TradingEnabled",
      "type": "event"
    },
    {
      "anonymous": false,
      "inputs": [
        {
          "indexed": true,
          "internalType": "address",
          "name": "from",
          "type": "address"
        },
        {
          "indexed": true,
          "internalType": "address",
          "name": "to",
          "type": "address"
        },
        {
          "indexed": false,
          "internalType": "uint256",
          "name": "value",
          "type": "uint256"
        }
      ],
      "name": "Transfer",
      "type": "event"
    },
    {
      "anonymous": false,
      "inputs": [
        {
          "indexed": true,
          "internalType": "address",
          "name": "user",
          "type": "address"
        },
        {
          "indexed": false,
          "internalType": "uint256",
          "name": "amount",
          "type": "uint256"
        },
        {
          "indexed": false,
          "internalType": "uint256",
          "name": "reward",
          "type": "uint256"
        }
      ],
      "name": "Unstaked",
      "type": "event"
    },
    {
      "inputs": [],
      "name": "FEE_DISCOUNT_BASIC",
      "outputs": [
        {
          "internalType": "uint256",
          "name": "",
          "type": "uint256"
        }
      ],
      "stateMutability": "view",
      "type": "function"
    },
    {
      "inputs": [],
      "name": "FEE_DISCOUNT_ENTERPRISE",
      "outputs": [
        {
          "internalType": "uint256",
          "name": "",
          "type": "uint256"
        }
      ],
      "stateMutability": "view",
      "type": "function"
    },
    {
      "inputs": [],
      "name": "FEE_DISCOUNT_PROFESSIONAL",
      "outputs": [
        {
          "internalType": "uint256",
          "name": "",
          "type": "uint256"
        }
      ],
      "stateMutability": "view",
      "type": "function"
    },
    {
      "inputs": [],
      "name": "MIN_STAKE_PERIOD",
      "outputs": [
        {
          "internalType": "uint256",
          "name": "",
          "type": "uint256"
        }
      ],
      "stateMutability": "view",
      "type": "function"
    },
    {
      "inputs": [],
      "name": "STAKE_REWARD_RATE",
      "outputs": [
        {
          "internalType": "uint256",
          "name": "",
          "type": "uint256"
        }
      ],
      "stateMutability": "view",
      "type": "function"
    },
    {
      "inputs": [],
      "name": "TOTAL_SUPPLY",
      "outputs": [
        {
          "internalType": "uint256",
          "name": "",
          "type": "uint256"
        }
      ],
      "stateMutability": "view",
      "type": "function"
    },
    {
      "inputs": [
        {
          "internalType": "address",
          "name": "_owner",
          "type": "address"
        },
        {
          "internalType": "address",
          "name": "spender",
          "type": "address"
        }
      ],
      "name": "allowance",
      "outputs": [
        {
          "internalType": "uint256",
          "name": "",
          "type": "uint256"
        }
      ],
      "stateMutability": "view",
      "type": "function"
    },
    {
      "inputs": [
        {
          "internalType": "address",
          "name": "spender",
          "type": "address"
        },
        {
          "internalType": "uint256",
          "name": "amount",
          "type": "uint256"
        }
      ],
      "name": "approve",
      "outputs": [
        {
          "internalType": "bool",
          "name": "",
          "type": "bool"
        }
      ],
      "stateMutability": "nonpayable",
      "type": "function"
    },
    {
      "inputs": [
        {
          "internalType": "address",
          "name": "user",
          "type": "address"
        },
        {
          "internalType": "enum CLXToken.WalletTier",
          "name": "tier",
          "type": "uint8"
        }
      ],
      "name": "assignTier",
      "outputs": [],
      "stateMutability": "nonpayable",
      "type": "function"
    },
    {
      "inputs": [
        {
          "internalType": "address",
          "name": "account",
          "type": "address"
        }
      ],
      "name": "balanceOf",
      "outputs": [
        {
          "internalType": "uint256",
          "name": "",
          "type": "uint256"
        }
      ],
      "stateMutability": "view",
      "type": "function"
    },
    {
      "inputs": [],
      "name": "decimals",
      "outputs": [
        {
          "internalType": "uint8",
          "name": "",
          "type": "uint8"
        }
      ],
      "stateMutability": "view",
      "type": "function"
    },
    {
      "inputs": [],
      "name": "enableTrading",
      "outputs": [],
      "stateMutability": "nonpayable",
      "type": "function"
    },
    {
      "inputs": [],
      "name": "escrowContract",
      "outputs": [
        {
          "internalType": "address",
          "name": "",
          "type": "address"
        }
      ],
      "stateMutability": "view",
      "type": "function"
    },
    {
      "inputs": [
        {
          "internalType": "address",
          "name": "user",
          "type": "address"
        }
      ],
      "name": "getFeeDiscount",
      "outputs": [
        {
          "internalType": "uint256",
          "name": "",
          "type": "uint256"
        }
      ],
      "stateMutability": "view",
      "type": "function"
    },
    {
      "inputs": [],
      "name": "name",
      "outputs": [
        {
          "internalType": "string",
          "name": "",
          "type": "string"
        }
      ],
      "stateMutability": "view",
      "type": "function"
    },
    {
      "inputs": [],
      "name": "owner",
      "outputs": [
        {
          "internalType": "address",
          "name": "",
          "type": "address"
        }
      ],
      "stateMutability": "view",
      "type": "function"
    },
    {
      "inputs": [
        {
          "internalType": "address",
          "name": "user",
          "type": "address"
        }
      ],
      "name": "pendingReward",
      "outputs": [
        {
          "internalType": "uint256",
          "name": "",
          "type": "uint256"
        }
      ],
      "stateMutability": "view",
      "type": "function"
    },
    {
      "inputs": [
        {
          "internalType": "address",
          "name": "_escrow",
          "type": "address"
        }
      ],
      "name": "setEscrowContract",
      "outputs": [],
      "stateMutability": "nonpayable",
      "type": "function"
    },
    {
      "inputs": [
        {
          "internalType": "uint256",
          "name": "amount",
          "type": "uint256"
        }
      ],
      "name": "stake",
      "outputs": [],
      "stateMutability": "nonpayable",
      "type": "function"
    },
    {
      "inputs": [
        {
          "internalType": "address",
          "name": "",
          "type": "address"
        }
      ],
      "name": "stakeTimestamp",
      "outputs": [
        {
          "internalType": "uint256",
          "name": "",
          "type": "uint256"
        }
      ],
      "stateMutability": "view",
      "type": "function"
    },
    {
      "inputs": [
        {
          "internalType": "address",
          "name": "",
          "type": "address"
        }
      ],
      "name": "stakedBalance",
      "outputs": [
        {
          "internalType": "uint256",
          "name": "",
          "type": "uint256"
        }
      ],
      "stateMutability": "view",
      "type": "function"
    },
    {
      "inputs": [],
      "name": "symbol",
      "outputs": [
        {
          "internalType": "string",
          "name": "",
          "type": "string"
        }
      ],
      "stateMutability": "view",
      "type": "function"
    },
    {
      "inputs": [],
      "name": "totalSupply",
      "outputs": [
        {
          "internalType": "uint256",
          "name": "",
          "type": "uint256"
        }
      ],
      "stateMutability": "pure",
      "type": "function"
    },
    {
      "inputs": [],
      "name": "tradingEnabled",
      "outputs": [
        {
          "internalType": "bool",
          "name": "",
          "type": "bool"
        }
      ],
      "stateMutability": "view",
      "type": "function"
    },
    {
      "inputs": [
        {
          "internalType": "address",
          "name": "to",
          "type": "address"
        },
        {
          "internalType": "uint256",
          "name": "amount",
          "type": "uint256"
        }
      ],
      "name": "transfer",
      "outputs": [
        {
          "internalType": "bool",
          "name": "",
          "type": "bool"
        }
      ],
      "stateMutability": "nonpayable",
      "type": "function"
    },
    {
      "inputs": [
        {
          "internalType": "address",
          "name": "from",
          "type": "address"
        },
        {
          "internalType": "address",
          "name": "to",
          "type": "address"
        },
        {
          "internalType": "uint256",
          "name": "amount",
          "type": "uint256"
        }
      ],
      "name": "transferFrom",
      "outputs": [
        {
          "internalType": "bool",
          "name": "",
          "type": "bool"
        }
      ],
      "stateMutability": "nonpayable",
      "type": "function"
    },
    {
      "inputs": [
        {
          "internalType": "address",
          "name": "newOwner",
          "type": "address"
        }
      ],
      "name": "transferOwnership",
      "outputs": [],
      "stateMutability": "nonpayable",
      "type": "function"
    },
    {
      "inputs": [],
      "name": "unstake",
      "outputs": [],
      "stateMutability": "nonpayable",
      "type": "function"
    },
    {
      "inputs": [
        {
          "internalType": "address",
          "name": "",
          "type": "address"
        }
      ],
      "name": "walletTier",
      "outputs": [
        {
          "internalType": "enum CLXToken.WalletTier",
          "name": "",
          "type": "uint8"
        }
      ],
      "stateMutability": "view",
      "type": "function"
    }
  ],
  "bytecode": "0x608060405234801561001057600080fd5b506040516110f93803806110f983398101604081905261002f916100ab565b600080546001600160a01b031916331781556001600160a01b038216808252600260205260408083206b033b2e3c9fd0803ce80000009081905590519192917fddf252ad1be2c89b69c2b068fc378daa952ba7f163c4a11628f55a4df523b3ef9161009d9190815260200190565b60405180910390a3506100db565b6000602082840312156100bd57600080fd5b81516001600160a01b03811681146100d457600080fd5b9392505050565b61100f806100ea6000396000f3fe608060405234801561001057600080fd5b50600436106101cf5760003560e01c80638da5cb5b11610104578063b7fa7cfc116100a2578063e42a96e711610071578063e42a96e71461044f578063f2fde38b14610462578063f40f0f5214610475578063f42375b51461048857600080fd5b8063b7fa7cfc146103f0578063bd97b58714610403578063d342f4841461040c578063dd62ed3e1461041657600080fd5b806395d89b41116100de57806395d89b4114610378578063a618b7e91461039a578063a694fc3a146103ca578063a9059cbb146103dd57600080fd5b80638da5cb5b1461033a5780638f261a62146102ac578063902d55a51461036557600080fd5b80633ed6c8f911610171578063602172671161014b57806360217267146102c957806370259077146102e957806370a08231146103095780638a8c523c1461033257600080fd5b80633ed6c8f9146102995780634130f058146102ac5780634ada218b146102b557600080fd5b80631e460f08116101ad5780631e460f081461025957806323b872dd146102625780632def662014610275578063313ce5671461027f57600080fd5b806306fdde03146101d4578063095ea7b31461021a57806318160ddd1461023d575b600080fd5b6102046040518060400160405280601181526020017021b937b9b9a632b233b2b9102a37b5b2b760791b81525081565b6040516102119190610d61565b60405180910390f35b61022d610228366004610dcb565b61049b565b6040519015158152602001610211565b6b033b2e3c9fd0803ce80000005b604051908152602001610211565b61024b610bb881565b61022d610270366004610df5565b610508565b61027d6105ce565b005b610287601281565b60405160ff9091168152602001610211565b61027d6102a7366004610e31565b61070a565b61024b6101f481565b60015461022d90600160a01b900460ff1681565b61024b6102d7366004610e6c565b60056020526000908152604090205481565b61024b6102f7366004610e6c565b60066020526000908152604090205481565b61024b610317366004610e6c565b6001600160a01b031660009081526002602052604090205490565b61027d6107a7565b60005461034d906001600160a01b031681565b6040516001600160a01b039091168152602001610211565b61024b6b033b2e3c9fd0803ce800000081565b6102046040518060400160405280600381526020016208698b60eb1b81525081565b6103bd6103a8366004610e6c565b60046020526000908152604090205460ff1681565b6040516102119190610e9d565b61027d6103d8366004610ec5565b61080f565b61022d6103eb366004610dcb565b610961565b61024b6103fe366004610e6c565b610977565b61024b6105dc81565b61024b62278d0081565b61024b610424366004610ede565b6001600160a01b03918216600090815260036020908152604080832093909416825291909152205490565b60015461034d906001600160a01b031681565b61027d610470366004610e6c565b610a05565b61024b610483366004610e6c565b610a77565b61027d610496366004610e6c565b610aa7565b3360008181526003602090815260408083206001600160a01b038716808552925280832085905551919290917f8c5be1e5ebec7d5bd14f71427d1e84f3dd0314c0f7b2291e5b200ac8c7c3b925906104f69086815260200190565b60405180910390a35060015b92915050565b6001600160a01b03831660009081526003602090815260408083203384529091528120548211156105805760405162461bcd60e51b815260206004820152601b60248201527f434c583a20696e73756666696369656e7420616c6c6f77616e6365000000000060448201526064015b60405180910390fd5b6001600160a01b0384166000908152600360209081526040808320338452909152812080548492906105b3908490610f27565b909155506105c49050848484610b41565b5060019392505050565b33600090815260056020526040902054806106215760405162461bcd60e51b815260206004820152601360248201527210d3160e881b9bdd1a1a5b99c81cdd185ad959606a1b6044820152606401610577565b3360009081526006602052604090205461063f9062278d0090610f3a565b42101561067f5760405162461bcd60e51b815260206004820152600e60248201526d434c583a20746f6f206561726c7960901b6044820152606401610577565b600061068a33610c8f565b3360009081526005602052604081205590506106a68183610f3a565b33600090815260026020526040812080549091906106c5908490610f3a565b9091555050604080518381526020810183905233917f7fc4727e062e336010f2c282598ef5f14facb3de68cf8195c2f23e1454b2b74e91015b60405180910390a25050565b6000546001600160a01b031633146107345760405162461bcd60e51b815260040161057790610f4d565b6001600160a01b0382166000908152600460205260409020805482919060ff1916600183600381111561076957610769610e87565b0217905550816001600160a01b03167f25a8e6b917872d4f0242d981f1efb363113f216dc7314bde01c287968defb51d826040516106fe9190610e9d565b6000546001600160a01b031633146107d15760405162461bcd60e51b815260040161057790610f4d565b6001805460ff60a01b1916600160a01b1790556040517f799663458a5ef2936f7fa0c99b3336c69c25890f82974f04e811e5bb359186c790600090a1565b600081116108515760405162461bcd60e51b815260206004820152600f60248201526e434c583a207a65726f207374616b6560881b6044820152606401610577565b336000908152600260205260409020548111156108ac5760405162461bcd60e51b8152602060048201526019602482015278434c583a20696e73756666696369656e742062616c616e636560381b6044820152606401610577565b33600090815260056020526040902054156108ca576108ca33610d01565b33600090815260026020526040812080548392906108e9908490610f27565b9091555050336000908152600560205260408120805483929061090d908490610f3a565b90915550503360008181526006602052604090819020429055517f9e71bc8eea02a63969f509818f2dafb9254532904319f9dbda79b67bd34a5f3d906109569084815260200190565b60405180910390a250565b600061096e338484610b41565b50600192915050565b6001600160a01b03811660009081526004602052604081205460ff1660038160038111156109a7576109a7610e87565b036109b65750610bb892915050565b60028160038111156109ca576109ca610e87565b036109d957506105dc92915050565b60018160038111156109ed576109ed610e87565b036109fc57506101f492915050565b50600092915050565b6000546001600160a01b03163314610a2f5760405162461bcd60e51b815260040161057790610f4d565b6001600160a01b038116610a555760405162461bcd60e51b815260040161057790610f75565b600080546001600160a01b0319166001600160a01b0392909216919091179055565b6001600160a01b0381166000908152600560205260408120548103610a9e57506000919050565b61050282610c8f565b6000546001600160a01b03163314610ad15760405162461bcd60e51b815260040161057790610f4d565b6001600160a01b038116610af75760405162461bcd60e51b815260040161057790610f75565b600180546001600160a01b0319166001600160a01b0383169081179091556040517fded808e17a47bf48d1a08e83e02563c8ff7f91d526f96d395bbce60d720d9d2990600090a250565b6001600160a01b03831615801590610b6157506001600160a01b03821615155b610b7d5760405162461bcd60e51b815260040161057790610f75565b6001600160a01b038316600090815260026020526040902054811115610be15760405162461bcd60e51b8152602060048201526019602482015278434c583a20696e73756666696369656e742062616c616e636560381b6044820152606401610577565b6001600160a01b03831660009081526002602052604081208054839290610c09908490610f27565b90915550506001600160a01b03821660009081526002602052604081208054839290610c36908490610f3a565b92505081905550816001600160a01b0316836001600160a01b03167fddf252ad1be2c89b69c2b068fc378daa952ba7f163c4a11628f55a4df523b3ef83604051610c8291815260200190565b60405180910390a3505050565b6001600160a01b0381166000908152600660205260408120548190610cb49042610f27565b6001600160a01b03841660009081526005602052604090205490915064496cebb800908290610ce6906101f490610fa0565b610cf09190610fa0565b610cfa9190610fb7565b9392505050565b6000610d0c82610c8f565b90508015610d5d576001600160a01b03821660009081526002602052604081208054839290610d3c908490610f3a565b90915550506001600160a01b03821660009081526006602052604090204290555b5050565b600060208083528351808285015260005b81811015610d8e57858101830151858201604001528201610d72565b506000604082860101526040601f19601f8301168501019250505092915050565b80356001600160a01b0381168114610dc657600080fd5b919050565b60008060408385031215610dde57600080fd5b610de783610daf565b946020939093013593505050565b600080600060608486031215610e0a57600080fd5b610e1384610daf565b9250610e2160208501610daf565b9150604084013590509250925092565b60008060408385031215610e4457600080fd5b610e4d83610daf565b9150602083013560048110610e6157600080fd5b809150509250929050565b600060208284031215610e7e57600080fd5b610cfa82610daf565b634e487b7160e01b600052602160045260246000fd5b6020810160048310610ebf57634e487b7160e01b600052602160045260246000fd5b91905290565b600060208284031215610ed757600080fd5b5035919050565b60008060408385031215610ef157600080fd5b610efa83610daf565b9150610f0860208401610daf565b90509250929050565b634e487b7160e01b600052601160045260246000fd5b8181038181111561050257610502610f11565b8082018082111561050257610502610f11565b6020808252600e908201526d21a62c1d103737ba1037bbb732b960911b604082015260600190565b602080825260119082015270434c583a207a65726f206164647265737360781b604082015260600190565b808202811582820484141761050257610502610f11565b600082610fd457634e487b7160e01b600052601260045260246000fd5b50049056fea2646970667358221220e42b672b2d28f187542bdd5c94179f39e0f7331f68c767c472f9a779714e638664736f6c63430008140033",
  "linkReferences": {},
  "deployedLinkReferences": {}
}