{
  "_format": "hh-sol-artifact-1",
  "contractName": "CrossLedgerEscrow",
  "sourceName": "contracts/CrossLedgerEscrow.sol",
  "abi": [
    {
      "inputs": [
        {
          "internalType": "address",
          "name": "_clxToken",
          "type": "address"
        },
        {
          "internalType": "address",
          "name": "_docRegistry",
          "type": "address"
        },
        {
          "internalType": "address",
          "name": "_feeCollector",
          "type": "address"
        }
      ],
      "stateMutability": "nonpayable",
      "type": "constructor"
    },
    {
      "anonymous": false,
      "inputs": [
        {
          "indexed": true,
          "internalType": "bytes32",
          "name": "tradeId",
          "type": "bytes32"
        },
        {
          "indexed": false,
          "internalType": "address",
          "name": "confirmedBy",
          "type": "address"
        }
      ],
      "name": "DeliveryConfirmed",
      "type": "event"
    },
    {
      "anonymous": false,
      "inputs": [
        {
          "indexed": true,
          "internalType": "bytes32",
          "name": "tradeId",
          "type": "bytes32"
        },
        {
          "indexed": false,
          "internalType": "address",
          "name": "winner",
          "type": "address"
        }
      ],
      "name": "DisputeResolved",
      "type": "event"
    },
    {
      "anonymous": false,
      "inputs": [
        {
          "indexed": true,
          "internalType": "bytes32",
          "name": "tradeId",
          "type": "bytes32"
        },
        {
          "indexed": false,
          "internalType": "bytes32[]",
          "name": "docHashes",
          "type": "bytes32[]"
        }
      ],
      "name": "DocumentsLodged",
      "type": "event"
    },
    {
      "anonymous": false,
      "inputs": [
        {
          "indexed": true,
          "internalType": "address",
          "name": "user",
          "type": "address"
        }
      ],
      "name": "KYCVerified",
      "type": "event"
    },
    {
      "anonymous": false,
      "inputs": [
        {
          "indexed": true,
          "internalType": "bytes32",
          "name": "tradeId",
          "type": "bytes32"
        },
        {
          "indexed": false,
          "internalType": "address",
          "name": "seller",
          "type": "address"
        },
        {
          "indexed": false,
          "internalType": "uint256",
          "name": "amount",
          "type": "uint256"
        }
      ],
      "name": "PaymentReleased",
      "type": "event"
    },
    {
      "anonymous": false,
      "inputs": [
        {
          "indexed": true,
          "internalType": "bytes32",
          "name": "tradeId",
          "type": "bytes32"
        },
        {
          "indexed": false,
          "internalType": "address",
          "name": "buyer",
          "type": "address"
        },
        {
          "indexed": false,
          "internalType": "uint256",
          "name": "amount",
          "type": "uint256"
        }
      ],
      "name": "RefundIssued",
      "type": "event"
    },
    {
      "anonymous": false,
      "inputs": [
        {
          "indexed": true,
          "internalType": "bytes32",
          "name": "tradeId",
          "type": "bytes32"
        },
        {
          "indexed": false,
          "internalType": "string",
          "name": "trackingRef",
          "type": "string"
        }
      ],
      "name": "ShipmentConfirmed",
      "type": "event"
    },
    {
      "anonymous": false,
      "inputs": [
        {
          "indexed": true,
          "internalType": "bytes32",
          "name": "tradeId",
          "type": "bytes32"
        }
      ],
      "name": "TradeCancelled",
      "type": "event"
    },
    {
      "anonymous": false,
      "inputs": [
        {
          "indexed": true,
          "internalType": "bytes32",
          "name": "tradeId",
          "type": "bytes32"
        },
        {
          "indexed": true,
          "internalType": "address",
          "name": "buyer",
          "type": "address"
        },
        {
          "indexed": true,
          "internalType": "address",
          "name": "seller",
          "type": "address"
        },
        {
          "indexed": false,
          "internalType": "uint256",
          "name": "amount",
          "type": "uint256"
        },
        {
          "indexed": false,
          "internalType": "string",
          "name": "commodityType",
          "type": "string"
        }
      ],
      "name": "TradeCreated",
      "type": "event"
    },
    {
      "anonymous": false,
      "inputs": [
        {
          "indexed": true,
          "internalType": "bytes32",
          "name": "tradeId",
          "type": "bytes32"
        },
        {
          "indexed": false,
          "internalType": "address",
          "name": "raisedBy",
          "type": "address"
        },
        {
          "indexed": false,
          "internalType": "string",
          "name": "reason",
          "type": "string"
        }
      ],
      "name": "TradeDisputed",
      "type": "event"
    },
    {
      "anonymous": false,
      "inputs": [
        {
          "indexed": true,
          "internalType": "bytes32",
          "name": "tradeId",
          "type": "bytes32"
        },
        {
          "indexed": false,
          "internalType": "uint256",
          "name": "amount",
          "type": "uint256"
        },
        {
          "indexed": false,
          "internalType": "uint256",
          "name": "fee",
          "type": "uint256"
        }
      ],
      "name": "TradeFunded",
      "type": "event"
    },
    {
      "inputs": [],
      "name": "BASE_FEE_BPS",
      "outputs": [
        {
          "internalType": "uint256",
          "name": "",
          "type": "uint256"
        }
      ],
      "stateMutability": "view",
      "type": "function"
    },
    {
      "inputs": [],
      "name": "DISPUTE_PERIOD",
      "outputs": [
        {
          "internalType": "uint256",
          "name": "",
          "type": "uint256"
        }
      ],
      "stateMutability": "view",
      "type": "function"
    },
    {
      "inputs": [
        {
          "internalType": "address",
          "name": "arb",
          "type": "address"
        }
      ],
      "name": "addArbitrator",
      "outputs": [],
      "stateMutability": "nonpayable",
      "type": "function"
    },
    {
      "inputs": [
        {
          "internalType": "address",
          "name": "",
          "type": "address"
        }
      ],
      "name": "arbitrators",
      "outputs": [
        {
          "internalType": "bool",
          "name": "",
          "type": "bool"
        }
      ],
      "stateMutability": "view",
      "type": "function"
    },
    {
      "inputs": [
        {
          "internalType": "bytes32",
          "name": "tradeId",
          "type": "bytes32"
        }
      ],
      "name": "autoRelease",
      "outputs": [],
      "stateMutability": "nonpayable",
      "type": "function"
    },
    {
      "inputs": [
        {
          "internalType": "address",
          "name": "",
          "type": "address"
        },
        {
          "internalType": "uint256",
          "name": "",
          "type": "uint256"
        }
      ],
      "name": "buyerTrades",
      "outputs": [
        {
          "internalType": "bytes32",
          "name": "",
          "type": "bytes32"
        }
      ],
      "stateMutability": "view",
      "type": "function"
    },
    {
      "inputs": [
        {
          "internalType": "bytes32",
          "name": "tradeId",
          "type": "bytes32"
        }
      ],
      "name": "cancelTrade",
      "outputs": [],
      "stateMutability": "nonpayable",
      "type": "function"
    },
    {
      "inputs": [],
      "name": "clxToken",
      "outputs": [
        {
          "internalType": "contract ICLXToken",
          "name": "",
          "type": "address"
        }
      ],
      "stateMutability": "view",
      "type": "function"
    },
    {
      "inputs": [
        {
          "internalType": "bytes32",
          "name": "tradeId",
          "type": "bytes32"
        }
      ],
      "name": "confirmDelivery",
      "outputs": [],
      "stateMutability": "nonpayable",
      "type": "function"
    },
    {
      "inputs": [
        {
          "internalType": "bytes32",
          "name": "tradeId",
          "type": "bytes32"
        },
        {
          "internalType": "string",
          "name": "trackingRef",
          "type": "string"
        }
      ],
      "name": "confirmShipment",
      "outputs": [],
      "stateMutability": "nonpayable",
      "type": "function"
    },
    {
      "inputs": [
        {
          "internalType": "address",
          "name": "_buyer",
          "type": "address"
        },
        {
          "internalType": "uint256",
          "name": "_amount",
          "type": "uint256"
        },
        {
          "components": [
            {
              "internalType": "bytes32[]",
              "name": "requiredDocHashes",
              "type": "bytes32[]"
            },
            {
              "internalType": "uint256",
              "name": "deliveryDeadline",
              "type": "uint256"
            },
            {
              "internalType": "bool",
              "name": "requiresBuyerConfirm",
              "type": "bool"
            },
            {
              "internalType": "string",
              "name": "originPort",
              "type": "string"
            },
            {
              "internalType": "string",
              "name": "destinationPort",
              "type": "string"
            },
            {
              "internalType": "string",
              "name": "commodityType",
              "type": "string"
            },
            {
              "internalType": "uint256",
              "name": "quantityMT",
              "type": "uint256"
            }
          ],
          "internalType": "struct CrossLedgerEscrow.TradeConditions",
          "name": "_conditions",
          "type": "tuple"
        }
      ],
      "name": "createTrade",
      "outputs": [
        {
          "internalType": "bytes32",
          "name": "tradeId",
          "type": "bytes32"
        }
      ],
      "stateMutability": "nonpayable",
      "type": "function"
    },
    {
      "inputs": [],
      "name": "docRegistry",
      "outputs": [
        {
          "internalType": "contract IDocumentRegistry",
          "name": "",
          "type": "address"
        }
      ],
      "stateMutability": "view",
      "type": "function"
    },
    {
      "inputs": [],
      "name": "feeCollector",
      "outputs": [
        {
          "internalType": "address",
          "name": "",
          "type": "address"
        }
      ],
      "stateMutability": "view",
      "type": "function"
    },
    {
      "inputs": [
        {
          "internalType": "bytes32",
          "name": "tradeId",
          "type": "bytes32"
        }
      ],
      "name": "fundEscrow",
      "outputs": [],
      "stateMutability": "nonpayable",
      "type": "function"
    },
    {
      "inputs": [
        {
          "internalType": "address",
          "name": "buyer",
          "type": "address"
        }
      ],
      "name": "getBuyerTrades",
      "outputs": [
        {
          "internalType": "bytes32[]",
          "name": "",
          "type": "bytes32[]"
        }
      ],
      "stateMutability": "view",
      "type": "function"
    },
    {
      "inputs": [
        {
          "internalType": "address",
          "name": "seller",
          "type": "address"
        }
      ],
      "name": "getSellerTrades",
      "outputs": [
        {
          "internalType": "bytes32[]",
          "name": "",
          "type": "bytes32[]"
        }
      ],
      "stateMutability": "view",
      "type": "function"
    },
    {
      "inputs": [
        {
          "internalType": "bytes32",
          "name": "tradeId",
          "type": "bytes32"
        }
      ],
      "name": "getTradeStatus",
      "outputs": [
        {
          "internalType": "enum CrossLedgerEscrow.TradeStatus",
          "name": "",
          "type": "uint8"
        }
      ],
      "stateMutability": "view",
      "type": "function"
    },
    {
      "inputs": [
        {
          "internalType": "address",
          "name": "",
          "type": "address"
        }
      ],
      "name": "kycVerified",
      "outputs": [
        {
          "internalType": "bool",
          "name": "",
          "type": "bool"
        }
      ],
      "stateMutability": "view",
      "type": "function"
    },
    {
      "inputs": [
        {
          "internalType": "bytes32",
          "name": "tradeId",
          "type": "bytes32"
        },
        {
          "internalType": "bytes32[]",
          "name": "docHashes",
          "type": "bytes32[]"
        }
      ],
      "name": "lodgeDocuments",
      "outputs": [],
      "stateMutability": "nonpayable",
      "type": "function"
    },
    {
      "inputs": [],
      "name": "owner",
      "outputs": [
        {
          "internalType": "address",
          "name": "",
          "type": "address"
        }
      ],
      "stateMutability": "view",
      "type": "function"
    },
    {
      "inputs": [
        {
          "internalType": "bytes32",
          "name": "tradeId",
          "type": "bytes32"
        },
        {
          "internalType": "string",
          "name": "reason",
          "type": "string"
        }
      ],
      "name": "raiseDispute",
      "outputs": [],
      "stateMutability": "nonpayable",
      "type": "function"
    },
    {
      "inputs": [
        {
          "internalType": "bytes32",
          "name": "tradeId",
          "type": "bytes32"
        },
        {
          "internalType": "bool",
          "name": "releaseToSeller",
          "type": "bool"
        }
      ],
      "name": "resolveDispute",
      "outputs": [],
      "stateMutability": "nonpayable",
      "type": "function"
    },
    {
      "inputs": [
        {
          "internalType": "address",
          "name": "",
          "type": "address"
        },
        {
          "internalType": "uint256",
          "name": "",
          "type": "uint256"
        }
      ],
      "name": "sellerTrades",
      "outputs": [
        {
          "internalType": "bytes32",
          "name": "",
          "type": "bytes32"
        }
      ],
      "stateMutability": "view",
      "type": "function"
    },
    {
      "inputs": [
        {
          "internalType": "address",
          "name": "_fc",
          "type": "address"
        }
      ],
      "name": "setFeeCollector",
      "outputs": [],
      "stateMutability": "nonpayable",
      "type": "function"
    },
    {
      "inputs": [],
      "name": "totalFeesCollected",
      "outputs": [
        {
          "internalType": "uint256",
          "name": "",
          "type": "uint256"
        }
      ],
      "stateMutability": "view",
      "type": "function"
    },
    {
      "inputs": [],
      "name": "totalTradeVolume",
      "outputs": [
        {
          "internalType": "uint256",
          "name": "",
          "type": "uint256"
        }
      ],
      "stateMutability": "view",
      "type": "function"
    },
    {
      "inputs": [],
      "name": "tradeCount",
      "outputs": [
        {
          "internalType": "uint256",
          "name": "",
          "type": "uint256"
        }
      ],
      "stateMutability": "view",
      "type": "function"
    },
    {
      "inputs": [
        {
          "internalType": "bytes32",
          "name": "",
          "type": "bytes32"
        }
      ],
      "name": "trades",
      "outputs": [
        {
          "internalType": "bytes32",
          "name": "tradeId",
          "type": "bytes32"
        },
        {
          "internalType": "address",
          "name": "buyer",
          "type": "address"
        },
        {
          "internalType": "address",
          "name": "seller",
          "type": "address"
        },
        {
          "internalType": "uint256",
          "name": "amount",
          "type": "uint256"
        },
        {
          "internalType": "uint256",
          "name": "platformFee",
          "type": "uint256"
        },
        {
          "internalType": "enum CrossLedgerEscrow.TradeStatus",
          "name": "status",
          "type": "uint8"
        },
        {
          "components": [
            {
              "internalType": "bytes32[]",
              "name": "requiredDocHashes",
              "type": "bytes32[]"
            },
            {
              "internalType": "uint256",
              "name": "deliveryDeadline",
              "type": "uint256"
            },
            {
              "internalType": "bool",
              "name": "requiresBuyerConfirm",
              "type": "bool"
            },
            {
              "internalType": "string",
              "name": "originPort",
              "type": "string"
            },
            {
              "internalType": "string",
              "name": "destinationPort",
              "type": "string"
            },
            {
              "internalType": "string",
              "name": "commodityType",
              "type": "string"
            },
            {
              "internalType": "uint256",
              "name": "quantityMT",
              "type": "uint256"
            }
          ],
          "internalType": "struct CrossLedgerEscrow.TradeConditions",
          "name": "conditions",
          "type": "tuple"
        },
        {
          "internalType": "uint256",
          "name": "createdAt",
          "type": "uint256"
        },
        {
          "internalType": "uint256",
          "name": "fundedAt",
          "type": "uint256"
        },
        {
          "internalType": "uint256",
          "name": "completedAt",
          "type": "uint256"
        },
        {
          "internalType": "bool",
          "name": "buyerConfirmed",
          "type": "bool"
        },
        {
          "internalType": "bool",
          "name": "sellerConfirmed",
          "type": "bool"
        }
      ],
      "stateMutability": "view",
      "type": "function"
    },
    {
      "inputs": [
        {
          "internalType": "address",
          "name": "user",
          "type": "address"
        }
      ],
      "name": "verifyKYC",
      "outputs": [],
      "stateMutability": "nonpayable",
      "type": "function"
    }
  ],
  "bytecode": "0x60806040523480156200001157600080fd5b50604051620028e6380380620028e68339810160408190526200003491620000b8565b60008054336001600160a01b0319918216811783556002805483166001600160a01b03978816179055600380548316958716959095179094556001805490911692909416919091178355908152600760205260409020805460ff1916909117905562000102565b80516001600160a01b0381168114620000b357600080fd5b919050565b600080600060608486031215620000ce57600080fd5b620000d9846200009b565b9250620000e9602085016200009b565b9150620000f9604085016200009b565b90509250925092565b6127d480620001126000396000f3fe608060405234801561001057600080fd5b50600436106101ce5760003560e01c806374950ffd11610104578063a5bbe22b116100a2578063d0a0432d11610071578063d0a0432d1461042d578063ddb2f1cc14610440578063e88791db14610453578063f8e65d611461045b57600080fd5b8063a5bbe22b146103f4578063bd55022a146103fe578063be7b8a7714610407578063c415b95c1461041a57600080fd5b8063892fa5d6116100de578063892fa5d6146103985780638da5cb5b146103ab578063a42dce80146103be578063a5410a66146103d157600080fd5b806374950ffd1461033f57806377407399146103525780637cfb41b81461038557600080fd5b806343a0e3e61161017157806353923f251161014b57806353923f25146102e55780635d799698146102f857806360c6d8ae1461030b578063678dddca1461031457600080fd5b806343a0e3e61461028c5780634f18f54b1461029f57806351d0ea37146102b257600080fd5b8063276fe712116101ad578063276fe7121461023c57806338d160111461025d5780633fa58f0d1461027057806341d2fe151461027957600080fd5b8062162420146101d357806301fabd75146102075780631354072b1461021c575b600080fd5b6101e66101e1366004611e49565b61046e565b6040516101fe9c9b9a99989796959493929190611ee0565b60405180910390f35b61021a610215366004612049565b610722565b005b61022f61022a366004612049565b610779565b6040516101fe919061206b565b61024f61024a3660046120af565b6107e5565b6040519081526020016101fe565b61021a61026b366004612049565b610816565b61024f60095481565b61021a6102873660046120d9565b61088c565b61021a61029a366004612169565b610ace565b61024f6102ad3660046120af565b610d80565b6102d56102c0366004612049565b60076020526000908152604090205460ff1681565b60405190151581526020016101fe565b61021a6102f3366004612199565b610d9c565b61021a610306366004611e49565b610ed6565b61024f600a5481565b600254610327906001600160a01b031681565b6040516001600160a01b0390911681526020016101fe565b61021a61034d366004611e49565b610ffa565b610378610360366004611e49565b60009081526004602052604090206005015460ff1690565b6040516101fe9190612202565b61021a610393366004611e49565b611159565b61022f6103a6366004612049565b6113f4565b600054610327906001600160a01b031681565b61021a6103cc366004612049565b61145e565b6102d56103df366004612049565b60086020526000908152604090205460ff1681565b61024f62093a8081565b61024f600b5481565b61021a610415366004612199565b6114aa565b600154610327906001600160a01b031681565b61024f61043b366004612216565b61163b565b600354610327906001600160a01b031681565b61024f601e81565b61021a610469366004611e49565b6119f7565b6004602081815260009283526040928390208054600182015460028301546003840154958401546005850154885160068701805461010099810283018a01909b5260e082018b8152969a6001600160a01b039687169a96909516989597939660ff909316959394919390928492909184919084018282801561050f57602002820191906000526020600020905b8154815260200190600101908083116104fb575b505050918352505060018201546020820152600282015460ff161515604082015260038201805460609092019161054590612274565b80601f016020809104026020016040519081016040528092919081815260200182805461057190612274565b80156105be5780601f10610593576101008083540402835291602001916105be565b820191906000526020600020905b8154815290600101906020018083116105a157829003601f168201915b505050505081526020016004820180546105d790612274565b80601f016020809104026020016040519081016040528092919081815260200182805461060390612274565b80156106505780601f1061062557610100808354040283529160200191610650565b820191906000526020600020905b81548152906001019060200180831161063357829003601f168201915b5050505050815260200160058201805461066990612274565b80601f016020809104026020016040519081016040528092919081815260200182805461069590612274565b80156106e25780601f106106b7576101008083540402835291602001916106e2565b820191906000526020600020905b8154815290600101906020018083116106c557829003601f168201915b505050918352505060069190910154602090910152600d820154600e830154600f8401546010909401549293919290919060ff808216916101009004168c565b6000546001600160a01b031633146107555760405162461bcd60e51b815260040161074c906122ae565b60405180910390fd5b6001600160a01b03166000908152600760205260409020805460ff19166001179055565b6001600160a01b0381166000908152600660209081526040918290208054835181840281018401909452808452606093928301828280156107d957602002820191906000526020600020905b8154815260200190600101908083116107c5575b50505050509050919050565b6005602052816000526040600020818154811061080157600080fd5b90600052602060002001600091509150505481565b6000546001600160a01b031633146108405760405162461bcd60e51b815260040161074c906122ae565b6001600160a01b038116600081815260086020526040808220805460ff19166001179055517f65c84ee842eafc291d1272a6e3d10f8c454c4288e63f5db3f7be2b3012f321a99190a250565b6000838152600460205260409020600d015483906108bc5760405162461bcd60e51b815260040161074c906122d9565b600084815260046020526040902060028101546001600160a01b0316331461091b5760405162461bcd60e51b815260206004820152601260248201527122b9b1b937bb9d103737ba1039b2b63632b960711b604482015260640161074c565b6001600582015460ff16600881111561093657610936611e62565b146109785760405162461bcd60e51b8152602060048201526012602482015271115cd8dc9bddce881b9bdd08199d5b99195960721b604482015260640161074c565b60005b6006820154811015610a7b576003546006830180546001600160a01b039092169163c181b2739190849081106109b3576109b3612304565b90600052602060002001546040518263ffffffff1660e01b81526004016109dc91815260200190565b602060405180830381865afa1580156109f9573d6000803e3d6000fd5b505050506040513d601f19601f82011682018060405250810190610a1d919061231a565b610a695760405162461bcd60e51b815260206004820152601860248201527f457363726f773a20646f63206e6f742076657269666965640000000000000000604482015260640161074c565b80610a738161234d565b91505061097b565b5060058101805460ff1916600217905560405185907fc4cc81de125d7a0e6efd73cc3e4ffef8cb0029abc2fe35803f07ca98a1f664a790610abf9087908790612366565b60405180910390a25050505050565b3360009081526007602052604090205460ff16610b265760405162461bcd60e51b815260206004820152601660248201527522b9b1b937bb9d103737ba1030b93134ba3930ba37b960511b604482015260640161074c565b6000828152600460205260409020600d01548290610b565760405162461bcd60e51b815260040161074c906122d9565b60008381526004602052604090206006600582015460ff166008811115610b7f57610b7f611e62565b14610bc35760405162461bcd60e51b8152602060048201526014602482015273115cd8dc9bddce881b9bdd08191a5cdc1d5d195960621b604482015260640161074c565b8215610c1b57610bd284611c89565b60028101546040516001600160a01b03909116815284907fc513157869d5df7583154f47d70526162925e137610792515fae2d874b519daa9060200160405180910390a2610d7a565b60058101805460ff191660081790556002546001820154600483015460038401546001600160a01b039384169363a9059cbb931691610c599161239f565b6040516001600160e01b031960e085901b1681526001600160a01b03909216600483015260248201526044016020604051808303816000875af1158015610ca4573d6000803e3d6000fd5b505050506040513d601f19601f82011682018060405250810190610cc8919061231a565b5060018101546004820154600383015486927ff8590cd6b8c44be7a2bc57131f10e203ec5f7d7f2f761e1508a8cc964ecb9eb7926001600160a01b0390911691610d12919061239f565b604080516001600160a01b03909316835260208301919091520160405180910390a260018101546040516001600160a01b03909116815284907fc513157869d5df7583154f47d70526162925e137610792515fae2d874b519daa906020015b60405180910390a25b50505050565b6006602052816000526040600020818154811061080157600080fd5b6000838152600460205260409020600d01548390610dcc5760405162461bcd60e51b815260040161074c906122d9565b600084815260046020526040902060028101546001600160a01b03163314610e2b5760405162461bcd60e51b815260206004820152601260248201527122b9b1b937bb9d103737ba1039b2b63632b960711b604482015260640161074c565b6002600582015460ff166008811115610e4657610e46611e62565b14610e935760405162461bcd60e51b815260206004820152601760248201527f457363726f773a20646f6373206e6f74206c6f64676564000000000000000000604482015260640161074c565b60058101805460ff1916600317905560405185907fae0a4b391ad677d5b7a190fe7505d676e65a6f517cd0b2035b7b8badd87cb54f90610abf90879087906123db565b6000818152600460205260409020600d01548190610f065760405162461bcd60e51b815260040161074c906122d9565b60008281526004602052604090206003600582015460ff166008811115610f2f57610f2f611e62565b1480610f5357506002600582015460ff166008811115610f5157610f51611e62565b145b610f985760405162461bcd60e51b8152602060048201526016602482015275457363726f773a2063616e6e6f742072656c6561736560501b604482015260640161074c565b6007810154610faa906212750061239f565b4211610fec5760405162461bcd60e51b8152602060048201526011602482015270457363726f773a20746f6f206561726c7960781b604482015260640161074c565b610ff583611c89565b505050565b6000818152600460205260409020600d0154819061102a5760405162461bcd60e51b815260040161074c906122d9565b600082815260046020526040902060018101546001600160a01b031633146110885760405162461bcd60e51b815260206004820152601160248201527022b9b1b937bb9d103737ba10313abcb2b960791b604482015260640161074c565b6003600582015460ff1660088111156110a3576110a3611e62565b14806110c757506002600582015460ff1660088111156110c5576110c5611e62565b145b61110c5760405162461bcd60e51b8152602060048201526016602482015275457363726f773a2063616e6e6f7420636f6e6669726d60501b604482015260640161074c565b60108101805460ff1916600117905560405133815283907ff46bccfdb06ecc81738bcfc5ee961cc50fe62e4a5060c050d8bf69bcd1d477319060200160405180910390a2610ff583611c89565b6000818152600460205260409020600d015481906111895760405162461bcd60e51b815260040161074c906122d9565b600082815260046020526040902060018101546001600160a01b03163314806111be575060028101546001600160a01b031633145b6111fe5760405162461bcd60e51b8152602060048201526011602482015270457363726f773a206e6f7420706172747960781b604482015260640161074c565b6000600582015460ff16600881111561121957611219611e62565b0361125d5760058101805460ff1916600717905560405183907f4e09303ea9c3932854b42432aa9f65348205f9681747864bf122101b3537150390600090a2505050565b6001600582015460ff16600881111561127857611278611e62565b148015611291575060018101546001600160a01b031633145b156113b45760058101805460ff191660081790556002546001820154600483015460038401546001600160a01b039384169363a9059cbb9316916112d49161239f565b6040516001600160e01b031960e085901b1681526001600160a01b03909216600483015260248201526044016020604051808303816000875af115801561131f573d6000803e3d6000fd5b505050506040513d601f19601f82011682018060405250810190611343919061231a565b5060018101546004820154600383015485927ff8590cd6b8c44be7a2bc57131f10e203ec5f7d7f2f761e1508a8cc964ecb9eb7926001600160a01b039091169161138d919061239f565b604080516001600160a01b03909316835260208301919091520160405180910390a2505050565b60405162461bcd60e51b8152602060048201526015602482015274115cd8dc9bddce8818d85b9b9bdd0818d85b98d95b605a1b604482015260640161074c565b6001600160a01b0381166000908152600560209081526040918290208054835181840281018401909452808452606093928301828280156107d957602002820191906000526020600020908154815260200190600101908083116107c55750505050509050919050565b6000546001600160a01b031633146114885760405162461bcd60e51b815260040161074c906122ae565b600180546001600160a01b0319166001600160a01b0392909216919091179055565b6000838152600460205260409020600d015483906114da5760405162461bcd60e51b815260040161074c906122d9565b600084815260046020526040902060018101546001600160a01b031633148061150f575060028101546001600160a01b031633145b61154f5760405162461bcd60e51b8152602060048201526011602482015270457363726f773a206e6f7420706172747960781b604482015260640161074c565b6001600582015460ff16600881111561156a5761156a611e62565b148061158e57506002600582015460ff16600881111561158c5761158c611e62565b145b806115b157506003600582015460ff1660088111156115af576115af611e62565b145b6115f65760405162461bcd60e51b8152602060048201526016602482015275457363726f773a2063616e6e6f74206469737075746560501b604482015260640161074c565b60058101805460ff1916600617905560405185907fe7640a123cf54a8ff801dfcff15fbee682f0c415bf4b14247855bd94b247981b90610abf903390889088906123f7565b3360009081526008602052604081205460ff16801561167257506001600160a01b03841660009081526008602052604090205460ff165b6116b55760405162461bcd60e51b8152602060048201526014602482015273115cd8dc9bddce8812d650c81c995c5d5a5c995960621b604482015260640161074c565b6001600160a01b038416158015906116d657506001600160a01b0384163314155b61171a5760405162461bcd60e51b815260206004820152601560248201527422b9b1b937bb9d1034b73b30b634b210313abcb2b960591b604482015260640161074c565b600083116117605760405162461bcd60e51b8152602060048201526013602482015272115cd8dc9bddce881e995c9bc8185b5bdd5b9d606a1b604482015260640161074c565b61176d426201518061239f565b8260200135116117bf5760405162461bcd60e51b815260206004820152601960248201527f457363726f773a20646561646c696e6520746f6f20736f6f6e00000000000000604482015260640161074c565b33848442600b60008154809291906117d69061234d565b909155506040516bffffffffffffffffffffffff19606096871b811660208301529490951b909316603485015260488401919091526068830152608882015260a80160408051601f1981840301815291815281516020928301206000818152600490935291208181556002810180546001600160a01b031990811633179091556001820180546001600160a01b03891692169190911790556003810185905560058101805460ff191690559091508260068201611893828261264d565b505042600d820155600254604051632dfe9f3f60e21b81526001600160a01b038781166004830152600092169063b7fa7cfc90602401602060405180830381865afa1580156118e6573d6000803e3d6000fd5b505050506040513d601f19601f8201168201806040525081019061190a9190612736565b9050600061191960648361274f565b601e1161192757600061193d565b61193260648361274f565b61193d90601e612771565b905061271061194c828861243b565b611956919061274f565b60048401556001600160a01b0387166000818152600560209081526040808320805460018181018355918552838520018990553380855260068452918420805491820181558452919092200186905590857f6d15bcba774fc9a41f701e33ba2c8348139291e2f68e7e961862fd720d2c997d896119d660a08b018b6124f8565b6040516119e593929190612784565b60405180910390a45050509392505050565b6000818152600460205260409020600d01548190611a275760405162461bcd60e51b815260040161074c906122d9565b600082815260046020526040902060018101546001600160a01b03163314611a855760405162461bcd60e51b815260206004820152601160248201527022b9b1b937bb9d103737ba10313abcb2b960791b604482015260640161074c565b6000600582015460ff166008811115611aa057611aa0611e62565b14611ae65760405162461bcd60e51b8152602060048201526016602482015275457363726f773a20696e76616c69642073746174757360501b604482015260640161074c565b3360009081526008602052604090205460ff16611b3c5760405162461bcd60e51b8152602060048201526014602482015273115cd8dc9bddce8812d650c81c995c5d5a5c995960621b604482015260640161074c565b600254600482015460038301546000926001600160a01b0316916323b872dd9133913091611b6a919061239f565b6040516001600160e01b031960e086901b1681526001600160a01b03938416600482015292909116602483015260448201526064016020604051808303816000875af1158015611bbe573d6000803e3d6000fd5b505050506040513d601f19601f82011682018060405250810190611be2919061231a565b905080611c315760405162461bcd60e51b815260206004820152601760248201527f457363726f773a207472616e73666572206661696c6564000000000000000000604482015260640161074c565b60058201805460ff1916600117905542600e8301556003820154600483015460408051928352602083019190915285917fcb88c40400ff93f3bef8b20ed0ebddb26333a39f829711fc661c0c094940cd2a9101610d71565b60008181526004602052604090206005808201805460ff1916600183021790555042600f820155600381015460098054600090611cc790849061239f565b90915550506004810154600a8054600090611ce390849061239f565b9091555050600481015415611d735760025460015460048381015460405163a9059cbb60e01b81526001600160a01b0393841692810192909252602482015291169063a9059cbb906044016020604051808303816000875af1158015611d4d573d6000803e3d6000fd5b505050506040513d601f19601f82011682018060405250810190611d71919061231a565b505b6002805490820154600383015460405163a9059cbb60e01b81526001600160a01b039283166004820152602481019190915291169063a9059cbb906044016020604051808303816000875af1158015611dd0573d6000803e3d6000fd5b505050506040513d601f19601f82011682018060405250810190611df4919061231a565b5060028101546003820154604080516001600160a01b039093168352602083019190915283917f1e170c3b430cc6fdcdaa453c42619ac587e13793aa81a489fab9ebd7019c2efb910160405180910390a25050565b600060208284031215611e5b57600080fd5b5035919050565b634e487b7160e01b600052602160045260246000fd5b60098110611e9657634e487b7160e01b600052602160045260246000fd5b9052565b6000815180845260005b81811015611ec057602081850181015186830182015201611ea4565b506000602082860101526020601f19601f83011685010191505092915050565b8c81526001600160a01b038c811660208301528b166040820152606081018a9052608081018990526000610180611f1a60a084018b611e78565b60c08301819052885160e09184019190915280516102608401819052610280840191602001906000905b80821015611f675782518452602084019350602083019250600182019150611f44565b50505060208901516101a0840152604089015115156101c0840152606089015183820361017f199081016101e0860152611fa18383611e9a565b925060808b015191508085840301610200860152611fbf8383611e9a565b925060a08b01519150808584030161022086015250611fde8282611e9a565b91505060c0890151610240840152809150508660e0830152856101008301528461012083015261201361014083018515159052565b8215156101608301529d9c50505050505050505050505050565b80356001600160a01b038116811461204457600080fd5b919050565b60006020828403121561205b57600080fd5b6120648261202d565b9392505050565b6020808252825182820181905260009190848201906040850190845b818110156120a357835183529284019291840191600101612087565b50909695505050505050565b600080604083850312156120c257600080fd5b6120cb8361202d565b946020939093013593505050565b6000806000604084860312156120ee57600080fd5b83359250602084013567ffffffffffffffff8082111561210d57600080fd5b818601915086601f83011261212157600080fd5b81358181111561213057600080fd5b8760208260051b850101111561214557600080fd5b6020830194508093505050509250925092565b801515811461216657600080fd5b50565b6000806040838503121561217c57600080fd5b82359150602083013561218e81612158565b809150509250929050565b6000806000604084860312156121ae57600080fd5b83359250602084013567ffffffffffffffff808211156121cd57600080fd5b818601915086601f8301126121e157600080fd5b8135818111156121f057600080fd5b87602082850101111561214557600080fd5b602081016122108284611e78565b92915050565b60008060006060848603121561222b57600080fd5b6122348461202d565b925060208401359150604084013567ffffffffffffffff81111561225757600080fd5b840160e0818703121561226957600080fd5b809150509250925092565b600181811c9082168061228857607f821691505b6020821081036122a857634e487b7160e01b600052602260045260246000fd5b50919050565b60208082526011908201527022b9b1b937bb9d103737ba1037bbb732b960791b604082015260600190565b602080825260119082015270115cd8dc9bddce881b9bdd08199bdd5b99607a1b604082015260600190565b634e487b7160e01b600052603260045260246000fd5b60006020828403121561232c57600080fd5b815161206481612158565b634e487b7160e01b600052601160045260246000fd5b60006001820161235f5761235f612337565b5060010190565b6020808252810182905260006001600160fb1b0383111561238657600080fd5b8260051b80856040850137919091016040019392505050565b8082018082111561221057612210612337565b81835281816020850137506000828201602090810191909152601f909101601f19169091010190565b6020815260006123ef6020830184866123b2565b949350505050565b6001600160a01b038416815260406020820181905260009061241c90830184866123b2565b95945050505050565b634e487b7160e01b600052604160045260246000fd5b808202811582820484141761221057612210612337565b67ffffffffffffffff83111561246a5761246a612425565b6801000000000000000083111561248357612483612425565b8054838255808410156124ba576000828152602081208581019083015b808210156124b6578282556001820191506124a0565b5050505b5060008181526020812083915b858110156124e3578235828201556020909201916001016124c7565b505050505050565b6000813561221081612158565b6000808335601e1984360301811261250f57600080fd5b83018035915067ffffffffffffffff82111561252a57600080fd5b60200191503681900382131561253f57600080fd5b9250929050565b601f821115610ff557600081815260208120601f850160051c8101602086101561256d5750805b601f850160051c820191505b818110156124e357828155600101612579565b67ffffffffffffffff8311156125a4576125a4612425565b6125b8836125b28354612274565b83612546565b6000601f8411600181146125ec57600085156125d45750838201355b600019600387901b1c1916600186901b178355612646565b600083815260209020601f19861690835b8281101561261d57868501358255602094850194600190920191016125fd565b508682101561263a5760001960f88860031b161c19848701351681555b505060018560011b0183555b5050505050565b8135601e1983360301811261266157600080fd5b8201803567ffffffffffffffff81111561267a57600080fd5b6020820191508060051b360382131561269257600080fd5b61269d818385612452565b5050602082013560018201556126d16126b8604084016124eb565b6002830160ff1981541660ff8315151681178255505050565b6126de60608301836124f8565b6126ec81836003860161258c565b50506126fb60808301836124f8565b61270981836004860161258c565b505061271860a08301836124f8565b61272681836005860161258c565b505060c082013560068201555050565b60006020828403121561274857600080fd5b5051919050565b60008261276c57634e487b7160e01b600052601260045260246000fd5b500490565b8181038181111561221057612210612337565b83815260406020820152600061241c6040830184866123b256fea2646970667358221220ede5ef43214d38007e9b6ad02dea55a28904ce6e074dd2d3d42fd0a078a9d2d464736f6c63430008140033",
  "linkReferences": {},
  "deployedLinkReferences": {}
}